{
  "contractName": "SupplyChain",
  "abi": [
    {
      "constant": false,
      "inputs": [
        {
          "name": "account",
          "type": "address"
        }
      ],
      "name": "addDoctor",
      "outputs": [],
      "payable": false,
      "stateMutability": "nonpayable",
      "type": "function"
    },
    {
      "constant": false,
      "inputs": [
        {
          "name": "account",
          "type": "address"
        }
      ],
      "name": "addPatient",
      "outputs": [],
      "payable": false,
      "stateMutability": "nonpayable",
      "type": "function"
    },
    {
      "constant": false,
      "inputs": [],
      "name": "renounceOwnership",
      "outputs": [],
      "payable": false,
      "stateMutability": "nonpayable",
      "type": "function"
    },
    {
      "constant": true,
      "inputs": [
        {
          "name": "",
          "type": "uint256"
        },
        {
          "name": "",
          "type": "uint256"
        }
      ],
      "name": "readers",
      "outputs": [
        {
          "name": "",
          "type": "address"
        }
      ],
      "payable": false,
      "stateMutability": "view",
      "type": "function"
    },
    {
      "constant": false,
      "inputs": [],
      "name": "renouncePatient",
      "outputs": [],
      "payable": false,
      "stateMutability": "nonpayable",
      "type": "function"
    },
    {
      "constant": true,
      "inputs": [],
      "name": "owner",
      "outputs": [
        {
          "name": "",
          "type": "address"
        }
      ],
      "payable": false,
      "stateMutability": "view",
      "type": "function"
    },
    {
      "constant": true,
      "inputs": [],
      "name": "isOwner",
      "outputs": [
        {
          "name": "",
          "type": "bool"
        }
      ],
      "payable": false,
      "stateMutability": "view",
      "type": "function"
    },
    {
      "constant": true,
      "inputs": [
        {
          "name": "account",
          "type": "address"
        }
      ],
      "name": "isPatient",
      "outputs": [
        {
          "name": "",
          "type": "bool"
        }
      ],
      "payable": false,
      "stateMutability": "view",
      "type": "function"
    },
    {
      "constant": true,
      "inputs": [
        {
          "name": "account",
          "type": "address"
        }
      ],
      "name": "isDoctor",
      "outputs": [
        {
          "name": "",
          "type": "bool"
        }
      ],
      "payable": false,
      "stateMutability": "view",
      "type": "function"
    },
    {
      "constant": false,
      "inputs": [],
      "name": "renounceDoctor",
      "outputs": [],
      "payable": false,
      "stateMutability": "nonpayable",
      "type": "function"
    },
    {
      "constant": false,
      "inputs": [
        {
          "name": "newOwner",
          "type": "address"
        }
      ],
      "name": "transferOwnership",
      "outputs": [],
      "payable": false,
      "stateMutability": "nonpayable",
      "type": "function"
    },
    {
      "inputs": [],
      "payable": true,
      "stateMutability": "payable",
      "type": "constructor"
    },
    {
      "payable": true,
      "stateMutability": "payable",
      "type": "fallback"
    },
    {
      "anonymous": false,
      "inputs": [
        {
          "indexed": false,
          "name": "sku",
          "type": "uint256"
        }
      ],
      "name": "Initialized",
      "type": "event"
    },
    {
      "anonymous": false,
      "inputs": [
        {
          "indexed": false,
          "name": "sku",
          "type": "uint256"
        }
      ],
      "name": "Updated",
      "type": "event"
    },
    {
      "anonymous": false,
      "inputs": [
        {
          "indexed": false,
          "name": "sku",
          "type": "uint256"
        }
      ],
      "name": "Completed",
      "type": "event"
    },
    {
      "anonymous": false,
      "inputs": [
        {
          "indexed": true,
          "name": "oldOwner",
          "type": "address"
        },
        {
          "indexed": true,
          "name": "newOwner",
          "type": "address"
        }
      ],
      "name": "TransferOwnership",
      "type": "event"
    },
    {
      "anonymous": false,
      "inputs": [
        {
          "indexed": true,
          "name": "account",
          "type": "address"
        }
      ],
      "name": "PatientAdded",
      "type": "event"
    },
    {
      "anonymous": false,
      "inputs": [
        {
          "indexed": true,
          "name": "account",
          "type": "address"
        }
      ],
      "name": "PatientRemoved",
      "type": "event"
    },
    {
      "anonymous": false,
      "inputs": [
        {
          "indexed": true,
          "name": "account",
          "type": "address"
        }
      ],
      "name": "DoctorAdded",
      "type": "event"
    },
    {
      "anonymous": false,
      "inputs": [
        {
          "indexed": true,
          "name": "account",
          "type": "address"
        }
      ],
      "name": "DoctorRemoved",
      "type": "event"
    },
    {
      "constant": false,
      "inputs": [
        {
          "name": "_sku",
          "type": "uint256"
        },
        {
          "name": "_file",
          "type": "string"
        },
        {
          "name": "_forPatient",
          "type": "address"
        }
      ],
      "name": "createMDR",
      "outputs": [],
      "payable": false,
      "stateMutability": "nonpayable",
      "type": "function"
    },
    {
      "constant": false,
      "inputs": [
        {
          "name": "_sku",
          "type": "uint256"
        },
        {
          "name": "_file",
          "type": "string"
        },
        {
          "name": "_price",
          "type": "uint256"
        }
      ],
      "name": "updateMDR",
      "outputs": [],
      "payable": true,
      "stateMutability": "payable",
      "type": "function"
    },
    {
      "constant": false,
      "inputs": [
        {
          "name": "_sku",
          "type": "uint256"
        },
        {
          "name": "_price",
          "type": "uint256"
        }
      ],
      "name": "payMDR",
      "outputs": [],
      "payable": true,
      "stateMutability": "payable",
      "type": "function"
    },
    {
      "constant": false,
      "inputs": [
        {
          "name": "_sku",
          "type": "uint256"
        },
        {
          "name": "forDoctor",
          "type": "address"
        }
      ],
      "name": "shareMDR",
      "outputs": [],
      "payable": false,
      "stateMutability": "nonpayable",
      "type": "function"
    },
    {
      "constant": true,
      "inputs": [
        {
          "name": "_sku",
          "type": "uint256"
        }
      ],
      "name": "fetchMDR",
      "outputs": [
        {
          "name": "skuItem",
          "type": "uint256"
        },
        {
          "name": "fileItem",
          "type": "string"
        },
        {
          "name": "ownerItem",
          "type": "address"
        },
        {
          "name": "fromDoctorItem",
          "type": "address"
        },
        {
          "name": "forPatientItem",
          "type": "address"
        },
        {
          "name": "statusItem",
          "type": "uint8"
        },
        {
          "name": "priceItem",
          "type": "uint256"
        }
      ],
      "payable": false,
      "stateMutability": "view",
      "type": "function"
    },
    {
      "constant": true,
      "inputs": [
        {
          "name": "_sku",
          "type": "uint256"
        },
        {
          "name": "_reader",
          "type": "address"
        }
      ],
      "name": "canReadMDR",
      "outputs": [
        {
          "name": "",
          "type": "bool"
        }
      ],
      "payable": false,
      "stateMutability": "view",
      "type": "function"
    }
  ],
  "bytecode": "0x60806040526200001e3362000104640100000000026401000000009004565b62000038336200016e640100000000026401000000009004565b33600260006101000a81548173ffffffffffffffffffffffffffffffffffffffff021916908373ffffffffffffffffffffffffffffffffffffffff160217905550600260009054906101000a900473ffffffffffffffffffffffffffffffffffffffff1673ffffffffffffffffffffffffffffffffffffffff16600073ffffffffffffffffffffffffffffffffffffffff167f5c486528ec3e3f0ea91181cff8116f02bfa350e03b8b6f12e00765adbb5af85c60405160405180910390a3600160038190555062000330565b62000128816000620001d864010000000002620014fa179091906401000000009004565b8073ffffffffffffffffffffffffffffffffffffffff167f69908b2e63170aa89ef89719bbe3b4c92cccc38653968ab25f4464eff7c28ac860405160405180910390a250565b62000192816001620001d864010000000002620014fa179091906401000000009004565b8073ffffffffffffffffffffffffffffffffffffffff167fa58cff07db0adda3ab7a40bd2f18ab57210bf38391a52ffd2e8eee6b8bdec71a60405160405180910390a250565b600073ffffffffffffffffffffffffffffffffffffffff168173ffffffffffffffffffffffffffffffffffffffff16141515156200021557600080fd5b6200023082826200029b640100000000026401000000009004565b1515156200023d57600080fd5b60018260000160008373ffffffffffffffffffffffffffffffffffffffff1673ffffffffffffffffffffffffffffffffffffffff16815260200190815260200160002060006101000a81548160ff0219169083151502179055505050565b60008073ffffffffffffffffffffffffffffffffffffffff168273ffffffffffffffffffffffffffffffffffffffff1614151515620002d957600080fd5b8260000160008373ffffffffffffffffffffffffffffffffffffffff1673ffffffffffffffffffffffffffffffffffffffff16815260200190815260200160002060009054906101000a900460ff16905092915050565b61183580620003406000396000f3006080604052600436106100f1576000357c0100000000000000000000000000000000000000000000000000000000900463ffffffff16806319022944146100f35780633a8b74351461011d5780634780468f146101b05780634a215d7c146101f35780634adde770146102585780634e447096146102c85780636d263ceb1461042a5780636d87239c1461046d578063715018a6146104ba57806376a105d9146104d157806381a07c36146105485780638da5cb5b1461055f5780638f32d59b146105b65780638f9c79ed146105e5578063996440c614610640578063a11062d21461069b578063f2fde38b146106b2575b005b61011b60048036038101908080359060200190929190803590602001909291905050506106f5565b005b34801561012957600080fd5b506101ae60048036038101908080359060200190929190803590602001908201803590602001908080601f0160208091040260200160405190810160405280939291908181526020018383808284378201915050505050509192919290803573ffffffffffffffffffffffffffffffffffffffff1690602001909291905050506108d3565b005b3480156101bc57600080fd5b506101f1600480360381019080803573ffffffffffffffffffffffffffffffffffffffff169060200190929190505050610af1565b005b3480156101ff57600080fd5b5061023e60048036038101908080359060200190929190803573ffffffffffffffffffffffffffffffffffffffff169060200190929190505050610b11565b604051808215151515815260200191505060405180910390f35b6102c660048036038101908080359060200190929190803590602001908201803590602001908080601f016020809104026020016040519081016040528093929190818152602001838380828437820191505050505050919291929080359060200190929190505050610bd7565b005b3480156102d457600080fd5b506102f360048036038101908080359060200190929190505050610d03565b60405180888152602001806020018773ffffffffffffffffffffffffffffffffffffffff1673ffffffffffffffffffffffffffffffffffffffff1681526020018673ffffffffffffffffffffffffffffffffffffffff1673ffffffffffffffffffffffffffffffffffffffff1681526020018573ffffffffffffffffffffffffffffffffffffffff1673ffffffffffffffffffffffffffffffffffffffff1681526020018460028111156103a357fe5b60ff168152602001838152602001828103825288818151815260200191508051906020019080838360005b838110156103e95780820151818401526020810190506103ce565b50505050905090810190601f1680156104165780820380516001836020036101000a031916815260200191505b509850505050505050505060405180910390f35b34801561043657600080fd5b5061046b600480360381019080803573ffffffffffffffffffffffffffffffffffffffff169060200190929190505050610ee3565b005b34801561047957600080fd5b506104b860048036038101908080359060200190929190803573ffffffffffffffffffffffffffffffffffffffff169060200190929190505050610f03565b005b3480156104c657600080fd5b506104cf610ff0565b005b3480156104dd57600080fd5b5061050660048036038101908080359060200190929190803590602001909291905050506110c4565b604051808273ffffffffffffffffffffffffffffffffffffffff1673ffffffffffffffffffffffffffffffffffffffff16815260200191505060405180910390f35b34801561055457600080fd5b5061055d611111565b005b34801561056b57600080fd5b5061057461111c565b604051808273ffffffffffffffffffffffffffffffffffffffff1673ffffffffffffffffffffffffffffffffffffffff16815260200191505060405180910390f35b3480156105c257600080fd5b506105cb611146565b604051808215151515815260200191505060405180910390f35b3480156105f157600080fd5b50610626600480360381019080803573ffffffffffffffffffffffffffffffffffffffff16906020019092919050505061119e565b604051808215151515815260200191505060405180910390f35b34801561064c57600080fd5b50610681600480360381019080803573ffffffffffffffffffffffffffffffffffffffff1690602001909291905050506111bb565b604051808215151515815260200191505060405180910390f35b3480156106a757600080fd5b506106b06111d8565b005b3480156106be57600080fd5b506106f3600480360381019080803573ffffffffffffffffffffffffffffffffffffffff1690602001909291905050506111e3565b005b600560008381526020019081526020016000206005015480341015151561071b57600080fd5b6005600084815260200190815260200160002060040160009054906101000a900473ffffffffffffffffffffffffffffffffffffffff168073ffffffffffffffffffffffffffffffffffffffff163373ffffffffffffffffffffffffffffffffffffffff1614151561078c57600080fd5b6005600085815260200190815260200160002060030160009054906101000a900473ffffffffffffffffffffffffffffffffffffffff1673ffffffffffffffffffffffffffffffffffffffff166108fc849081150290604051600060405180830381858888f19350505050158015610808573d6000803e3d6000fd5b50336005600086815260200190815260200160002060020160006101000a81548173ffffffffffffffffffffffffffffffffffffffff021916908373ffffffffffffffffffffffffffffffffffffffff16021790555060026005600086815260200190815260200160002060040160146101000a81548160ff0219169083600281111561089157fe5b02179055507fdfd517ed69f8a0a57d49fe494e4864fac3cfe3585c14c0bfddf39f72463ec3fd846040518082815260200191505060405180910390a150505050565b6108db611659565b60e0604051908101604052808581526020018481526020013373ffffffffffffffffffffffffffffffffffffffff1681526020013373ffffffffffffffffffffffffffffffffffffffff1681526020018373ffffffffffffffffffffffffffffffffffffffff1681526020016000600281111561095457fe5b815260200160008152509050806005600086815260200190815260200160002060008201518160000155602082015181600101908051906020019061099a9291906116e4565b5060408201518160020160006101000a81548173ffffffffffffffffffffffffffffffffffffffff021916908373ffffffffffffffffffffffffffffffffffffffff16021790555060608201518160030160006101000a81548173ffffffffffffffffffffffffffffffffffffffff021916908373ffffffffffffffffffffffffffffffffffffffff16021790555060808201518160040160006101000a81548173ffffffffffffffffffffffffffffffffffffffff021916908373ffffffffffffffffffffffffffffffffffffffff16021790555060a08201518160040160146101000a81548160ff02191690836002811115610a9457fe5b021790555060c082015181600501559050506001600354016003819055507fbe9b076dc5b65990cca9dd9d7366682482e7817a6f6bc7f4faf4dc32af497f326003546040518082815260200191505060405180910390a150505050565b610afa336111bb565b1515610b0557600080fd5b610b0e81611202565b50565b6000806000809150600090505b6004600086815260200190815260200160002080549050811015610bcc578373ffffffffffffffffffffffffffffffffffffffff166004600087815260200190815260200160002082815481101515610b7357fe5b9060005260206000200160009054906101000a900473ffffffffffffffffffffffffffffffffffffffff1673ffffffffffffffffffffffffffffffffffffffff161415610bbf57600191505b8080600101915050610b1e565b819250505092915050565b6005600084815260200190815260200160002060020160009054906101000a900473ffffffffffffffffffffffffffffffffffffffff168073ffffffffffffffffffffffffffffffffffffffff163373ffffffffffffffffffffffffffffffffffffffff16141515610c4857600080fd5b82600560008681526020019081526020016000206001019080519060200190610c72929190611764565b5081600560008681526020019081526020016000206005018190555060016005600086815260200190815260200160002060040160146101000a81548160ff02191690836002811115610cc157fe5b02179055507f208509800c5cb9707f116ef96a1d456499ab9fa3c8edc1cdf381fe5216d5b173846040518082815260200191505060405180910390a150505050565b60006060600080600080600060056000898152602001908152602001600020600001549650600560008981526020019081526020016000206001018054600181600116156101000203166002900480601f016020809104026020016040519081016040528092919081815260200182805460018160011615610100020316600290048015610dd25780601f10610da757610100808354040283529160200191610dd2565b820191906000526020600020905b815481529060010190602001808311610db557829003601f168201915b505050505095506005600089815260200190815260200160002060020160009054906101000a900473ffffffffffffffffffffffffffffffffffffffff1694506005600089815260200190815260200160002060030160009054906101000a900473ffffffffffffffffffffffffffffffffffffffff1693506005600089815260200190815260200160002060040160009054906101000a900473ffffffffffffffffffffffffffffffffffffffff1692506005600089815260200190815260200160002060040160149054906101000a900460ff16915060056000898152602001908152602001600020600501549050868686868686869650965096509650965096509650919395979092949650565b610eec3361119e565b1515610ef757600080fd5b610f008161125c565b50565b6005600083815260200190815260200160002060020160009054906101000a900473ffffffffffffffffffffffffffffffffffffffff168073ffffffffffffffffffffffffffffffffffffffff163373ffffffffffffffffffffffffffffffffffffffff16141515610f7457600080fd5b600460008481526020019081526020016000208290806001815401808255809150509060018203906000526020600020016000909192909190916101000a81548173ffffffffffffffffffffffffffffffffffffffff021916908373ffffffffffffffffffffffffffffffffffffffff16021790555050505050565b610ff8611146565b151561100357600080fd5b600073ffffffffffffffffffffffffffffffffffffffff16600260009054906101000a900473ffffffffffffffffffffffffffffffffffffffff1673ffffffffffffffffffffffffffffffffffffffff167f5c486528ec3e3f0ea91181cff8116f02bfa350e03b8b6f12e00765adbb5af85c60405160405180910390a36000600260006101000a81548173ffffffffffffffffffffffffffffffffffffffff021916908373ffffffffffffffffffffffffffffffffffffffff160217905550565b6004602052816000526040600020818154811015156110df57fe5b906000526020600020016000915091509054906101000a900473ffffffffffffffffffffffffffffffffffffffff1681565b61111a336112b6565b565b6000600260009054906101000a900473ffffffffffffffffffffffffffffffffffffffff16905090565b6000600260009054906101000a900473ffffffffffffffffffffffffffffffffffffffff1673ffffffffffffffffffffffffffffffffffffffff163373ffffffffffffffffffffffffffffffffffffffff1614905090565b60006111b482600161131090919063ffffffff16565b9050919050565b60006111d182600061131090919063ffffffff16565b9050919050565b6111e1336113a4565b565b6111eb611146565b15156111f657600080fd5b6111ff816113fe565b50565b6112168160006114fa90919063ffffffff16565b8073ffffffffffffffffffffffffffffffffffffffff167f69908b2e63170aa89ef89719bbe3b4c92cccc38653968ab25f4464eff7c28ac860405160405180910390a250565b6112708160016114fa90919063ffffffff16565b8073ffffffffffffffffffffffffffffffffffffffff167fa58cff07db0adda3ab7a40bd2f18ab57210bf38391a52ffd2e8eee6b8bdec71a60405160405180910390a250565b6112ca8160016115aa90919063ffffffff16565b8073ffffffffffffffffffffffffffffffffffffffff167f053a4badf166f01c4b02f6bcb71d2d67734470d0866282e291e73001aa25c76960405160405180910390a250565b60008073ffffffffffffffffffffffffffffffffffffffff168273ffffffffffffffffffffffffffffffffffffffff161415151561134d57600080fd5b8260000160008373ffffffffffffffffffffffffffffffffffffffff1673ffffffffffffffffffffffffffffffffffffffff16815260200190815260200160002060009054906101000a900460ff16905092915050565b6113b88160006115aa90919063ffffffff16565b8073ffffffffffffffffffffffffffffffffffffffff167f493d7cf6a7c880406a55654d6727464ea088bd01d40498e1987a327e68961ab860405160405180910390a250565b600073ffffffffffffffffffffffffffffffffffffffff168173ffffffffffffffffffffffffffffffffffffffff161415151561143a57600080fd5b8073ffffffffffffffffffffffffffffffffffffffff16600260009054906101000a900473ffffffffffffffffffffffffffffffffffffffff1673ffffffffffffffffffffffffffffffffffffffff167f5c486528ec3e3f0ea91181cff8116f02bfa350e03b8b6f12e00765adbb5af85c60405160405180910390a380600260006101000a81548173ffffffffffffffffffffffffffffffffffffffff021916908373ffffffffffffffffffffffffffffffffffffffff16021790555050565b600073ffffffffffffffffffffffffffffffffffffffff168173ffffffffffffffffffffffffffffffffffffffff161415151561153657600080fd5b6115408282611310565b15151561154c57600080fd5b60018260000160008373ffffffffffffffffffffffffffffffffffffffff1673ffffffffffffffffffffffffffffffffffffffff16815260200190815260200160002060006101000a81548160ff0219169083151502179055505050565b600073ffffffffffffffffffffffffffffffffffffffff168173ffffffffffffffffffffffffffffffffffffffff16141515156115e657600080fd5b6115f08282611310565b15156115fb57600080fd5b60008260000160008373ffffffffffffffffffffffffffffffffffffffff1673ffffffffffffffffffffffffffffffffffffffff16815260200190815260200160002060006101000a81548160ff0219169083151502179055505050565b60e0604051908101604052806000815260200160608152602001600073ffffffffffffffffffffffffffffffffffffffff168152602001600073ffffffffffffffffffffffffffffffffffffffff168152602001600073ffffffffffffffffffffffffffffffffffffffff168152602001600060028111156116d757fe5b8152602001600081525090565b828054600181600116156101000203166002900490600052602060002090601f016020900481019282601f1061172557805160ff1916838001178555611753565b82800160010185558215611753579182015b82811115611752578251825591602001919060010190611737565b5b50905061176091906117e4565b5090565b828054600181600116156101000203166002900490600052602060002090601f016020900481019282601f106117a557805160ff19168380011785556117d3565b828001600101855582156117d3579182015b828111156117d25782518255916020019190600101906117b7565b5b5090506117e091906117e4565b5090565b61180691905b808211156118025760008160009055506001016117ea565b5090565b905600a165627a7a72305820c7d7b3acfb1b456d12dff84ae74c923f41e08e91ed4a0ac1e980309e6b26bbb20029",
  "source": "pragma solidity ^0.4.24;\n\nimport \"@nomiclabs/buidler/console.sol\";\nimport \"../medicalAccesscontrol/PatientRole.sol\";\nimport \"../medicalAccesscontrol/DoctorRole.sol\";\nimport \"../medicalCore/Ownable.sol\";\n\n// Define a contract 'Supplychain'\ncontract SupplyChain is DoctorRole, PatientRole, Ownable {\n    // Define 'owner'\n    // address owner;\n\n    // Define a variable called 'sku' for Stock Keeping Unit (SKU)\n    uint256 sku;\n\n    // maintain the list of doctors who can access to one medical record (SKU)\n    mapping(uint256 => address[]) public readers;\n\n    // Define enum 'State' with the following values:\n    enum State {\n        Initialized, // 0\n        Updating, // 1\n        Complete // 2\n    }\n\n    State constant defaultState = State.Initialized;\n\n    // Define a struct 'Item' with the following fields:\n    struct MedicalRecord {\n        uint256 sku;\n        string file;\n        address owner; // can be doctor or patient depends on the status of the item\n        address fromDoctor;\n        address forPatient;\n        State status;\n        uint256 price;\n    }\n\n    mapping(uint256 => MedicalRecord) items;\n\n    event Initialized(uint256 sku);\n    event Updated(uint256 sku);\n    event Completed(uint256 sku);\n\n\n    // Define a modifer that verifies the Caller\n    modifier verifyCaller(address _address) {\n        require(msg.sender == _address);\n        _;\n    }\n\n    // Define a modifier that checks if the paid amount is sufficient to cover the price\n    modifier paidEnough(uint256 _price) {\n        require(msg.value >= _price);\n        _;\n    }\n\n    // Define a modifier that checks if an item.state of a upc is Harvested\n    modifier initialized(uint256 _sku) {\n        require(items[_sku].status == State.Initialized);\n        _;\n    }\n\n    // Define a modifier that checks if an item.state of a upc is Processed\n    modifier updating(State _state) {\n        require(_state == State.Updating);\n        _;\n    }\n\n    constructor() public payable {\n        sku = 1;\n    }   \n\n    function createMDR(\n        uint256 _sku,\n        string _file,\n        address _forPatient\n    ) public {\n        MedicalRecord memory mdr = MedicalRecord({\n            sku: _sku,\n            file: _file,\n            owner: msg.sender,\n            fromDoctor: msg.sender,\n            forPatient: _forPatient,\n            status: State.Initialized,\n            price: 0\n        });\n\n        items[_sku] = mdr;\n        sku = sku + 1;\n        emit Initialized(sku);\n    }\n\n    function updateMDR(\n        uint256 _sku,\n        string _file,\n        uint256 _price\n    ) public payable verifyCaller(items[_sku].owner) {\n        items[_sku].file = _file;\n        items[_sku].price = _price;\n        items[_sku].status = State.Updating;\n\n        emit Updated(_sku);\n    }\n\n    function payMDR(uint256 _sku, uint256 _price)\n        public\n        payable\n        paidEnough(items[_sku].price)\n        verifyCaller(items[_sku].forPatient)\n    {\n        // updating(items[_sku].status)\n        // paidEnough(items[_sku].price)\n        // verifyCaller(items[_sku].forPatient)\n\n        // Transfer money to doctor\n        items[_sku].fromDoctor.transfer(_price);\n        items[_sku].owner = msg.sender;\n        items[_sku].status = State.Complete;\n\n        emit Completed(_sku);\n    }\n\n    function shareMDR(uint256 _sku, address forDoctor)\n        public\n        verifyCaller(items[_sku].owner)\n    {\n        readers[_sku].push(forDoctor);\n    }\n\n    function fetchMDR(uint256 _sku)\n        public\n        view\n        returns (\n            uint256 skuItem,\n            string fileItem,\n            address ownerItem,\n            address fromDoctorItem,\n            address forPatientItem,\n            State statusItem,\n            uint256 priceItem\n        )\n    {\n        skuItem = items[_sku].sku;\n        fileItem = items[_sku].file;\n        ownerItem = items[_sku].owner;\n        fromDoctorItem = items[_sku].fromDoctor;\n        forPatientItem = items[_sku].forPatient;\n        statusItem = items[_sku].status;\n        priceItem = items[_sku].price;\n\n        return (\n            skuItem,\n            fileItem,\n            ownerItem,\n            fromDoctorItem,\n            forPatientItem,\n            statusItem,\n            priceItem\n        );\n    }\n\n    function canReadMDR(uint256 _sku, address _reader)\n        public\n        view\n        returns (bool)\n    {\n        bool canRead = false;\n        for (uint256 i = 0; i < readers[_sku].length; i++) {\n            if (readers[_sku][i] == _reader) canRead = true;\n        }\n\n        return canRead;\n    }\n\n    // @notice Will receive any eth sent to the contract\n    function() external payable {}\n}\n",
  "sourcePath": "/Users/vinhnguyen/Projects/learn/blockchain/Udacity/blockchain-nanodegree/nd1309-supply-chain/contracts/medicalBase/SupplyChain.sol",
  "compiler": {
    "name": "solc",
    "version": "0.4.26+commit.4563c3fc.Emscripten.clang"
  },
  "schemaVersion": "2.0.3",
  "updatedAt": "2021-11-23T01:42:18.611Z"
}