{
  "contractName": "SupplyChain",
  "abi": [
    {
      "constant": false,
      "inputs": [
        {
          "name": "account",
          "type": "address"
        }
      ],
      "name": "addDoctor",
      "outputs": [],
      "payable": false,
      "stateMutability": "nonpayable",
      "type": "function"
    },
    {
      "constant": false,
      "inputs": [
        {
          "name": "account",
          "type": "address"
        }
      ],
      "name": "addPatient",
      "outputs": [],
      "payable": false,
      "stateMutability": "nonpayable",
      "type": "function"
    },
    {
      "constant": true,
      "inputs": [
        {
          "name": "",
          "type": "uint256"
        },
        {
          "name": "",
          "type": "uint256"
        }
      ],
      "name": "readers",
      "outputs": [
        {
          "name": "",
          "type": "address"
        }
      ],
      "payable": false,
      "stateMutability": "view",
      "type": "function"
    },
    {
      "constant": false,
      "inputs": [],
      "name": "renouncePatient",
      "outputs": [],
      "payable": false,
      "stateMutability": "nonpayable",
      "type": "function"
    },
    {
      "constant": true,
      "inputs": [
        {
          "name": "account",
          "type": "address"
        }
      ],
      "name": "isPatient",
      "outputs": [
        {
          "name": "",
          "type": "bool"
        }
      ],
      "payable": false,
      "stateMutability": "view",
      "type": "function"
    },
    {
      "constant": true,
      "inputs": [
        {
          "name": "account",
          "type": "address"
        }
      ],
      "name": "isDoctor",
      "outputs": [
        {
          "name": "",
          "type": "bool"
        }
      ],
      "payable": false,
      "stateMutability": "view",
      "type": "function"
    },
    {
      "constant": false,
      "inputs": [],
      "name": "renounceDoctor",
      "outputs": [],
      "payable": false,
      "stateMutability": "nonpayable",
      "type": "function"
    },
    {
      "inputs": [],
      "payable": true,
      "stateMutability": "payable",
      "type": "constructor"
    },
    {
      "payable": true,
      "stateMutability": "payable",
      "type": "fallback"
    },
    {
      "anonymous": false,
      "inputs": [
        {
          "indexed": false,
          "name": "sku",
          "type": "uint256"
        }
      ],
      "name": "Initialized",
      "type": "event"
    },
    {
      "anonymous": false,
      "inputs": [
        {
          "indexed": false,
          "name": "sku",
          "type": "uint256"
        }
      ],
      "name": "Updated",
      "type": "event"
    },
    {
      "anonymous": false,
      "inputs": [
        {
          "indexed": false,
          "name": "sku",
          "type": "uint256"
        }
      ],
      "name": "Completed",
      "type": "event"
    },
    {
      "anonymous": false,
      "inputs": [
        {
          "indexed": true,
          "name": "account",
          "type": "address"
        }
      ],
      "name": "PatientAdded",
      "type": "event"
    },
    {
      "anonymous": false,
      "inputs": [
        {
          "indexed": true,
          "name": "account",
          "type": "address"
        }
      ],
      "name": "PatientRemoved",
      "type": "event"
    },
    {
      "anonymous": false,
      "inputs": [
        {
          "indexed": true,
          "name": "account",
          "type": "address"
        }
      ],
      "name": "DoctorAdded",
      "type": "event"
    },
    {
      "anonymous": false,
      "inputs": [
        {
          "indexed": true,
          "name": "account",
          "type": "address"
        }
      ],
      "name": "DoctorRemoved",
      "type": "event"
    },
    {
      "constant": false,
      "inputs": [],
      "name": "kill",
      "outputs": [],
      "payable": false,
      "stateMutability": "nonpayable",
      "type": "function"
    },
    {
      "constant": false,
      "inputs": [
        {
          "name": "_sku",
          "type": "uint256"
        },
        {
          "name": "_file",
          "type": "string"
        },
        {
          "name": "_forPatient",
          "type": "address"
        }
      ],
      "name": "createMDR",
      "outputs": [],
      "payable": false,
      "stateMutability": "nonpayable",
      "type": "function"
    },
    {
      "constant": false,
      "inputs": [
        {
          "name": "_sku",
          "type": "uint256"
        },
        {
          "name": "_file",
          "type": "string"
        },
        {
          "name": "_price",
          "type": "uint256"
        }
      ],
      "name": "updateMDR",
      "outputs": [],
      "payable": true,
      "stateMutability": "payable",
      "type": "function"
    },
    {
      "constant": false,
      "inputs": [
        {
          "name": "_sku",
          "type": "uint256"
        },
        {
          "name": "_price",
          "type": "uint256"
        }
      ],
      "name": "payMDR",
      "outputs": [],
      "payable": true,
      "stateMutability": "payable",
      "type": "function"
    },
    {
      "constant": false,
      "inputs": [
        {
          "name": "_sku",
          "type": "uint256"
        },
        {
          "name": "forDoctor",
          "type": "address"
        }
      ],
      "name": "shareMDR",
      "outputs": [],
      "payable": false,
      "stateMutability": "nonpayable",
      "type": "function"
    },
    {
      "constant": true,
      "inputs": [
        {
          "name": "_sku",
          "type": "uint256"
        }
      ],
      "name": "fetchMDR",
      "outputs": [
        {
          "name": "skuItem",
          "type": "uint256"
        },
        {
          "name": "fileItem",
          "type": "string"
        },
        {
          "name": "ownerItem",
          "type": "address"
        },
        {
          "name": "fromDoctorItem",
          "type": "address"
        },
        {
          "name": "forPatientItem",
          "type": "address"
        },
        {
          "name": "statusItem",
          "type": "uint8"
        },
        {
          "name": "priceItem",
          "type": "uint256"
        }
      ],
      "payable": false,
      "stateMutability": "view",
      "type": "function"
    },
    {
      "constant": true,
      "inputs": [
        {
          "name": "_sku",
          "type": "uint256"
        },
        {
          "name": "_reader",
          "type": "address"
        }
      ],
      "name": "canReadMDR",
      "outputs": [
        {
          "name": "",
          "type": "bool"
        }
      ],
      "payable": false,
      "stateMutability": "view",
      "type": "function"
    }
  ],
  "bytecode": "0x60806040526200001e3362000087640100000000026401000000009004565b6200003833620000f1640100000000026401000000009004565b33600260006101000a81548173ffffffffffffffffffffffffffffffffffffffff021916908373ffffffffffffffffffffffffffffffffffffffff1602179055506001600381905550620002b3565b620000ab8160006200015b64010000000002620011c0179091906401000000009004565b8073ffffffffffffffffffffffffffffffffffffffff167f69908b2e63170aa89ef89719bbe3b4c92cccc38653968ab25f4464eff7c28ac860405160405180910390a250565b620001158160016200015b64010000000002620011c0179091906401000000009004565b8073ffffffffffffffffffffffffffffffffffffffff167fa58cff07db0adda3ab7a40bd2f18ab57210bf38391a52ffd2e8eee6b8bdec71a60405160405180910390a250565b600073ffffffffffffffffffffffffffffffffffffffff168173ffffffffffffffffffffffffffffffffffffffff16141515156200019857600080fd5b620001b382826200021e640100000000026401000000009004565b151515620001c057600080fd5b60018260000160008373ffffffffffffffffffffffffffffffffffffffff1673ffffffffffffffffffffffffffffffffffffffff16815260200190815260200160002060006101000a81548160ff0219169083151502179055505050565b60008073ffffffffffffffffffffffffffffffffffffffff168273ffffffffffffffffffffffffffffffffffffffff16141515156200025c57600080fd5b8260000160008373ffffffffffffffffffffffffffffffffffffffff1673ffffffffffffffffffffffffffffffffffffffff16815260200190815260200160002060009054906101000a900460ff16905092915050565b6114fb80620002c36000396000f3006080604052600436106100d0576000357c0100000000000000000000000000000000000000000000000000000000900463ffffffff16806319022944146100d25780633a8b7435146100fc57806341c0e1b51461018f5780634780468f146101a65780634a215d7c146101e95780634adde7701461024e5780634e447096146102be5780636d263ceb146104205780636d87239c1461046357806376a105d9146104b057806381a07c36146105275780638f9c79ed1461053e578063996440c614610599578063a11062d2146105f4575b005b6100fa600480360381019080803590602001909291908035906020019092919050505061060b565b005b34801561010857600080fd5b5061018d60048036038101908080359060200190929190803590602001908201803590602001908080601f0160208091040260200160405190810160405280939291908181526020018383808284378201915050505050509192919290803573ffffffffffffffffffffffffffffffffffffffff169060200190929190505050610777565b005b34801561019b57600080fd5b506101a4610995565b005b3480156101b257600080fd5b506101e7600480360381019080803573ffffffffffffffffffffffffffffffffffffffff169060200190929190505050610a28565b005b3480156101f557600080fd5b5061023460048036038101908080359060200190929190803573ffffffffffffffffffffffffffffffffffffffff169060200190929190505050610a48565b604051808215151515815260200191505060405180910390f35b6102bc60048036038101908080359060200190929190803590602001908201803590602001908080601f016020809104026020016040519081016040528093929190818152602001838380828437820191505050505050919291929080359060200190929190505050610b0e565b005b3480156102ca57600080fd5b506102e960048036038101908080359060200190929190505050610c3a565b60405180888152602001806020018773ffffffffffffffffffffffffffffffffffffffff1673ffffffffffffffffffffffffffffffffffffffff1681526020018673ffffffffffffffffffffffffffffffffffffffff1673ffffffffffffffffffffffffffffffffffffffff1681526020018573ffffffffffffffffffffffffffffffffffffffff1673ffffffffffffffffffffffffffffffffffffffff16815260200184600281111561039957fe5b60ff168152602001838152602001828103825288818151815260200191508051906020019080838360005b838110156103df5780820151818401526020810190506103c4565b50505050905090810190601f16801561040c5780820380516001836020036101000a031916815260200191505b509850505050505050505060405180910390f35b34801561042c57600080fd5b50610461600480360381019080803573ffffffffffffffffffffffffffffffffffffffff169060200190929190505050610e1a565b005b34801561046f57600080fd5b506104ae60048036038101908080359060200190929190803573ffffffffffffffffffffffffffffffffffffffff169060200190929190505050610e3a565b005b3480156104bc57600080fd5b506104e56004803603810190808035906020019092919080359060200190929190505050610f27565b604051808273ffffffffffffffffffffffffffffffffffffffff1673ffffffffffffffffffffffffffffffffffffffff16815260200191505060405180910390f35b34801561053357600080fd5b5061053c610f74565b005b34801561054a57600080fd5b5061057f600480360381019080803573ffffffffffffffffffffffffffffffffffffffff169060200190929190505050610f7f565b604051808215151515815260200191505060405180910390f35b3480156105a557600080fd5b506105da600480360381019080803573ffffffffffffffffffffffffffffffffffffffff169060200190929190505050610f9c565b604051808215151515815260200191505060405180910390f35b34801561060057600080fd5b50610609610fb9565b005b600560008381526020019081526020016000206005015480341015151561063157600080fd5b6005600084815260200190815260200160002060030160009054906101000a900473ffffffffffffffffffffffffffffffffffffffff1673ffffffffffffffffffffffffffffffffffffffff166108fc839081150290604051600060405180830381858888f193505050501580156106ad573d6000803e3d6000fd5b50336005600085815260200190815260200160002060020160006101000a81548173ffffffffffffffffffffffffffffffffffffffff021916908373ffffffffffffffffffffffffffffffffffffffff16021790555060026005600085815260200190815260200160002060040160146101000a81548160ff0219169083600281111561073657fe5b02179055507fdfd517ed69f8a0a57d49fe494e4864fac3cfe3585c14c0bfddf39f72463ec3fd836040518082815260200191505060405180910390a1505050565b61077f61131f565b60e0604051908101604052808581526020018481526020013373ffffffffffffffffffffffffffffffffffffffff1681526020013373ffffffffffffffffffffffffffffffffffffffff1681526020018373ffffffffffffffffffffffffffffffffffffffff168152602001600060028111156107f857fe5b815260200160008152509050806005600086815260200190815260200160002060008201518160000155602082015181600101908051906020019061083e9291906113aa565b5060408201518160020160006101000a81548173ffffffffffffffffffffffffffffffffffffffff021916908373ffffffffffffffffffffffffffffffffffffffff16021790555060608201518160030160006101000a81548173ffffffffffffffffffffffffffffffffffffffff021916908373ffffffffffffffffffffffffffffffffffffffff16021790555060808201518160040160006101000a81548173ffffffffffffffffffffffffffffffffffffffff021916908373ffffffffffffffffffffffffffffffffffffffff16021790555060a08201518160040160146101000a81548160ff0219169083600281111561093857fe5b021790555060c082015181600501559050506001600354016003819055507fbe9b076dc5b65990cca9dd9d7366682482e7817a6f6bc7f4faf4dc32af497f326003546040518082815260200191505060405180910390a150505050565b600260009054906101000a900473ffffffffffffffffffffffffffffffffffffffff1673ffffffffffffffffffffffffffffffffffffffff163373ffffffffffffffffffffffffffffffffffffffff161415610a2657600260009054906101000a900473ffffffffffffffffffffffffffffffffffffffff1673ffffffffffffffffffffffffffffffffffffffff16ff5b565b610a3133610f9c565b1515610a3c57600080fd5b610a4581610fc4565b50565b6000806000809150600090505b6004600086815260200190815260200160002080549050811015610b03578373ffffffffffffffffffffffffffffffffffffffff166004600087815260200190815260200160002082815481101515610aaa57fe5b9060005260206000200160009054906101000a900473ffffffffffffffffffffffffffffffffffffffff1673ffffffffffffffffffffffffffffffffffffffff161415610af657600191505b8080600101915050610a55565b819250505092915050565b6005600084815260200190815260200160002060020160009054906101000a900473ffffffffffffffffffffffffffffffffffffffff168073ffffffffffffffffffffffffffffffffffffffff163373ffffffffffffffffffffffffffffffffffffffff16141515610b7f57600080fd5b82600560008681526020019081526020016000206001019080519060200190610ba992919061142a565b5081600560008681526020019081526020016000206005018190555060016005600086815260200190815260200160002060040160146101000a81548160ff02191690836002811115610bf857fe5b02179055507f208509800c5cb9707f116ef96a1d456499ab9fa3c8edc1cdf381fe5216d5b173846040518082815260200191505060405180910390a150505050565b60006060600080600080600060056000898152602001908152602001600020600001549650600560008981526020019081526020016000206001018054600181600116156101000203166002900480601f016020809104026020016040519081016040528092919081815260200182805460018160011615610100020316600290048015610d095780601f10610cde57610100808354040283529160200191610d09565b820191906000526020600020905b815481529060010190602001808311610cec57829003601f168201915b505050505095506005600089815260200190815260200160002060020160009054906101000a900473ffffffffffffffffffffffffffffffffffffffff1694506005600089815260200190815260200160002060030160009054906101000a900473ffffffffffffffffffffffffffffffffffffffff1693506005600089815260200190815260200160002060040160009054906101000a900473ffffffffffffffffffffffffffffffffffffffff1692506005600089815260200190815260200160002060040160149054906101000a900460ff16915060056000898152602001908152602001600020600501549050868686868686869650965096509650965096509650919395979092949650565b610e2333610f7f565b1515610e2e57600080fd5b610e378161101e565b50565b6005600083815260200190815260200160002060020160009054906101000a900473ffffffffffffffffffffffffffffffffffffffff168073ffffffffffffffffffffffffffffffffffffffff163373ffffffffffffffffffffffffffffffffffffffff16141515610eab57600080fd5b600460008481526020019081526020016000208290806001815401808255809150509060018203906000526020600020016000909192909190916101000a81548173ffffffffffffffffffffffffffffffffffffffff021916908373ffffffffffffffffffffffffffffffffffffffff16021790555050505050565b600460205281600052604060002081815481101515610f4257fe5b906000526020600020016000915091509054906101000a900473ffffffffffffffffffffffffffffffffffffffff1681565b610f7d33611078565b565b6000610f958260016110d290919063ffffffff16565b9050919050565b6000610fb28260006110d290919063ffffffff16565b9050919050565b610fc233611166565b565b610fd88160006111c090919063ffffffff16565b8073ffffffffffffffffffffffffffffffffffffffff167f69908b2e63170aa89ef89719bbe3b4c92cccc38653968ab25f4464eff7c28ac860405160405180910390a250565b6110328160016111c090919063ffffffff16565b8073ffffffffffffffffffffffffffffffffffffffff167fa58cff07db0adda3ab7a40bd2f18ab57210bf38391a52ffd2e8eee6b8bdec71a60405160405180910390a250565b61108c81600161127090919063ffffffff16565b8073ffffffffffffffffffffffffffffffffffffffff167f053a4badf166f01c4b02f6bcb71d2d67734470d0866282e291e73001aa25c76960405160405180910390a250565b60008073ffffffffffffffffffffffffffffffffffffffff168273ffffffffffffffffffffffffffffffffffffffff161415151561110f57600080fd5b8260000160008373ffffffffffffffffffffffffffffffffffffffff1673ffffffffffffffffffffffffffffffffffffffff16815260200190815260200160002060009054906101000a900460ff16905092915050565b61117a81600061127090919063ffffffff16565b8073ffffffffffffffffffffffffffffffffffffffff167f493d7cf6a7c880406a55654d6727464ea088bd01d40498e1987a327e68961ab860405160405180910390a250565b600073ffffffffffffffffffffffffffffffffffffffff168173ffffffffffffffffffffffffffffffffffffffff16141515156111fc57600080fd5b61120682826110d2565b15151561121257600080fd5b60018260000160008373ffffffffffffffffffffffffffffffffffffffff1673ffffffffffffffffffffffffffffffffffffffff16815260200190815260200160002060006101000a81548160ff0219169083151502179055505050565b600073ffffffffffffffffffffffffffffffffffffffff168173ffffffffffffffffffffffffffffffffffffffff16141515156112ac57600080fd5b6112b682826110d2565b15156112c157600080fd5b60008260000160008373ffffffffffffffffffffffffffffffffffffffff1673ffffffffffffffffffffffffffffffffffffffff16815260200190815260200160002060006101000a81548160ff0219169083151502179055505050565b60e0604051908101604052806000815260200160608152602001600073ffffffffffffffffffffffffffffffffffffffff168152602001600073ffffffffffffffffffffffffffffffffffffffff168152602001600073ffffffffffffffffffffffffffffffffffffffff1681526020016000600281111561139d57fe5b8152602001600081525090565b828054600181600116156101000203166002900490600052602060002090601f016020900481019282601f106113eb57805160ff1916838001178555611419565b82800160010185558215611419579182015b828111156114185782518255916020019190600101906113fd565b5b50905061142691906114aa565b5090565b828054600181600116156101000203166002900490600052602060002090601f016020900481019282601f1061146b57805160ff1916838001178555611499565b82800160010185558215611499579182015b8281111561149857825182559160200191906001019061147d565b5b5090506114a691906114aa565b5090565b6114cc91905b808211156114c85760008160009055506001016114b0565b5090565b905600a165627a7a72305820c110a0b8bb359ee94618f6b0a79ae2557ef28eae0df41c35af5c4f598758fd910029",
  "source": "pragma solidity ^0.4.24;\n\nimport \"@nomiclabs/buidler/console.sol\";\nimport \"../medicalAccesscontrol/PatientRole.sol\";\nimport \"../medicalAccesscontrol/DoctorRole.sol\";\nimport \"../medicalCore/Ownable.sol\";\n\n// Define a contract 'Supplychain'\ncontract SupplyChain is DoctorRole, PatientRole {\n    // Define 'owner'\n    address owner;\n\n    // Define a variable called 'sku' for Stock Keeping Unit (SKU)\n    uint256 sku;\n\n    // maintain the list of doctors who can access to one medical record (SKU)\n    mapping(uint256 => address[]) public readers;\n\n    // Define enum 'State' with the following values:\n    enum State {\n        Initialized, // 0\n        Updating, // 1\n        Complete // 2\n    }\n\n    State constant defaultState = State.Initialized;\n\n    // Define a struct 'Item' with the following fields:\n    struct MedicalRecord {\n        uint256 sku;\n        string file;\n        address owner; // can be doctor or patient depends on the status of the item\n        address fromDoctor;\n        address forPatient;\n        State status;\n        uint256 price;\n    }\n\n    mapping(uint256 => MedicalRecord) items;\n\n    event Initialized(uint256 sku);\n    event Updated(uint256 sku);\n    event Completed(uint256 sku);\n\n    // Define a modifer that checks to see if msg.sender == owner of the contract\n    modifier onlyOwner() {\n        require(msg.sender == owner);\n        _;\n    }\n\n    // Define a modifer that verifies the Caller\n    modifier verifyCaller(address _address) {\n        require(msg.sender == _address);\n        _;\n    }\n\n    // Define a modifier that checks if the paid amount is sufficient to cover the price\n    modifier paidEnough(uint256 _price) {\n        require(msg.value >= _price);\n        _;\n    }\n\n    // Define a modifier that checks if an item.state of a upc is Harvested\n    modifier initialized(uint256 _sku) {\n        require(items[_sku].status == State.Initialized);\n        _;\n    }\n\n    // Define a modifier that checks if an item.state of a upc is Processed\n    modifier updating(State _state) {\n        require(_state == State.Updating);\n        _;\n    }\n\n    constructor() public payable {\n        owner = msg.sender;\n        sku = 1;\n    }\n\n    function kill() public {\n        if (msg.sender == owner) {\n            selfdestruct(owner);\n        }\n    }\n\n    function createMDR(\n        uint256 _sku,\n        string _file,\n        address _forPatient\n    ) public {\n        MedicalRecord memory mdr = MedicalRecord({\n            sku: _sku,\n            file: _file,\n            owner: msg.sender,\n            fromDoctor: msg.sender,\n            forPatient: _forPatient,\n            status: State.Initialized,\n            price: 0\n        });\n\n        items[_sku] = mdr;\n        sku = sku + 1;\n        emit Initialized(sku);\n    }\n\n    function updateMDR(\n        uint256 _sku,\n        string _file,\n        uint256 _price\n    ) public payable verifyCaller(items[_sku].owner) {\n        items[_sku].file = _file;\n        items[_sku].price = _price;\n        items[_sku].status = State.Updating;\n\n        emit Updated(_sku);\n    }\n\n    function payMDR(uint256 _sku, uint256 _price)\n        public\n        payable\n        paidEnough(items[_sku].price)\n    {\n        // updating(items[_sku].status)\n        // paidEnough(items[_sku].price)\n        // verifyCaller(items[_sku].forPatient)\n\n        // Transfer money to doctor\n        items[_sku].fromDoctor.transfer(_price);\n        items[_sku].owner = msg.sender;\n        items[_sku].status = State.Complete;\n\n        emit Completed(_sku);\n    }\n\n    function shareMDR(uint256 _sku, address forDoctor)\n        public\n        verifyCaller(items[_sku].owner)\n    {\n        readers[_sku].push(forDoctor);\n    }\n\n    function fetchMDR(uint256 _sku)\n        public\n        view\n        returns (\n            uint256 skuItem,\n            string fileItem,\n            address ownerItem,\n            address fromDoctorItem,\n            address forPatientItem,\n            State statusItem,\n            uint256 priceItem\n        )\n    {\n        skuItem = items[_sku].sku;\n        fileItem = items[_sku].file;\n        ownerItem = items[_sku].owner;\n        fromDoctorItem = items[_sku].fromDoctor;\n        forPatientItem = items[_sku].forPatient;\n        statusItem = items[_sku].status;\n        priceItem = items[_sku].price;\n\n        return (\n            skuItem,\n            fileItem,\n            ownerItem,\n            fromDoctorItem,\n            forPatientItem,\n            statusItem,\n            priceItem\n        );\n    }\n\n    function canReadMDR(uint256 _sku, address _reader)\n        public\n        view\n        returns (bool)\n    {\n        bool canRead = false;\n        for (uint256 i = 0; i < readers[_sku].length; i++) {\n            if (readers[_sku][i] == _reader) canRead = true;\n        }\n\n        return canRead;\n    }\n\n    // @notice Will receive any eth sent to the contract\n    function() external payable {}\n}\n",
  "sourcePath": "/Users/vinhnguyen/Projects/learn/blockchain/Udacity/blockchain-nanodegree/nd1309-supply-chain/contracts/medicalBase/SupplyChain.sol",
  "compiler": {
    "name": "solc",
    "version": "0.4.26+commit.4563c3fc.Emscripten.clang"
  },
  "schemaVersion": "2.0.3",
  "updatedAt": "2021-11-21T11:20:39.958Z"
}