{
  "contractName": "SupplyChain",
  "abi": [
    {
      "constant": false,
      "inputs": [
        {
          "name": "account",
          "type": "address"
        }
      ],
      "name": "addDoctor",
      "outputs": [],
      "payable": false,
      "stateMutability": "nonpayable",
      "type": "function"
    },
    {
      "constant": false,
      "inputs": [
        {
          "name": "account",
          "type": "address"
        }
      ],
      "name": "addPatient",
      "outputs": [],
      "payable": false,
      "stateMutability": "nonpayable",
      "type": "function"
    },
    {
      "constant": false,
      "inputs": [],
      "name": "renouncePatient",
      "outputs": [],
      "payable": false,
      "stateMutability": "nonpayable",
      "type": "function"
    },
    {
      "constant": true,
      "inputs": [
        {
          "name": "account",
          "type": "address"
        }
      ],
      "name": "isPatient",
      "outputs": [
        {
          "name": "",
          "type": "bool"
        }
      ],
      "payable": false,
      "stateMutability": "view",
      "type": "function"
    },
    {
      "constant": true,
      "inputs": [
        {
          "name": "account",
          "type": "address"
        }
      ],
      "name": "isDoctor",
      "outputs": [
        {
          "name": "",
          "type": "bool"
        }
      ],
      "payable": false,
      "stateMutability": "view",
      "type": "function"
    },
    {
      "constant": false,
      "inputs": [],
      "name": "renounceDoctor",
      "outputs": [],
      "payable": false,
      "stateMutability": "nonpayable",
      "type": "function"
    },
    {
      "inputs": [],
      "payable": true,
      "stateMutability": "payable",
      "type": "constructor"
    },
    {
      "anonymous": false,
      "inputs": [
        {
          "indexed": false,
          "name": "sku",
          "type": "uint256"
        }
      ],
      "name": "Initialized",
      "type": "event"
    },
    {
      "anonymous": false,
      "inputs": [
        {
          "indexed": false,
          "name": "sku",
          "type": "uint256"
        }
      ],
      "name": "Updated",
      "type": "event"
    },
    {
      "anonymous": false,
      "inputs": [
        {
          "indexed": false,
          "name": "sku",
          "type": "uint256"
        }
      ],
      "name": "Completed",
      "type": "event"
    },
    {
      "anonymous": false,
      "inputs": [
        {
          "indexed": true,
          "name": "account",
          "type": "address"
        }
      ],
      "name": "PatientAdded",
      "type": "event"
    },
    {
      "anonymous": false,
      "inputs": [
        {
          "indexed": true,
          "name": "account",
          "type": "address"
        }
      ],
      "name": "PatientRemoved",
      "type": "event"
    },
    {
      "anonymous": false,
      "inputs": [
        {
          "indexed": true,
          "name": "account",
          "type": "address"
        }
      ],
      "name": "DoctorAdded",
      "type": "event"
    },
    {
      "anonymous": false,
      "inputs": [
        {
          "indexed": true,
          "name": "account",
          "type": "address"
        }
      ],
      "name": "DoctorRemoved",
      "type": "event"
    },
    {
      "constant": false,
      "inputs": [],
      "name": "kill",
      "outputs": [],
      "payable": false,
      "stateMutability": "nonpayable",
      "type": "function"
    },
    {
      "constant": false,
      "inputs": [
        {
          "name": "_sku",
          "type": "uint256"
        },
        {
          "name": "_file",
          "type": "string"
        },
        {
          "name": "_forPatient",
          "type": "address"
        }
      ],
      "name": "createMDR",
      "outputs": [],
      "payable": false,
      "stateMutability": "nonpayable",
      "type": "function"
    },
    {
      "constant": false,
      "inputs": [
        {
          "name": "_sku",
          "type": "uint256"
        },
        {
          "name": "_file",
          "type": "string"
        },
        {
          "name": "_price",
          "type": "uint256"
        }
      ],
      "name": "updateMDR",
      "outputs": [],
      "payable": false,
      "stateMutability": "nonpayable",
      "type": "function"
    },
    {
      "constant": false,
      "inputs": [
        {
          "name": "_sku",
          "type": "uint256"
        },
        {
          "name": "_price",
          "type": "uint256"
        }
      ],
      "name": "payMDR",
      "outputs": [],
      "payable": true,
      "stateMutability": "payable",
      "type": "function"
    },
    {
      "constant": false,
      "inputs": [
        {
          "name": "_sku",
          "type": "uint256"
        },
        {
          "name": "forDoctor",
          "type": "address"
        }
      ],
      "name": "shareMDR",
      "outputs": [],
      "payable": false,
      "stateMutability": "nonpayable",
      "type": "function"
    }
  ],
  "bytecode": "0x60806040526200001e3362000087640100000000026401000000009004565b6200003833620000f1640100000000026401000000009004565b33600260006101000a81548173ffffffffffffffffffffffffffffffffffffffff021916908373ffffffffffffffffffffffffffffffffffffffff1602179055506001600381905550620002b3565b620000ab8160006200015b6401000000000262000cac179091906401000000009004565b8073ffffffffffffffffffffffffffffffffffffffff167f69908b2e63170aa89ef89719bbe3b4c92cccc38653968ab25f4464eff7c28ac860405160405180910390a250565b620001158160016200015b6401000000000262000cac179091906401000000009004565b8073ffffffffffffffffffffffffffffffffffffffff167fa58cff07db0adda3ab7a40bd2f18ab57210bf38391a52ffd2e8eee6b8bdec71a60405160405180910390a250565b600073ffffffffffffffffffffffffffffffffffffffff168173ffffffffffffffffffffffffffffffffffffffff16141515156200019857600080fd5b620001b382826200021e640100000000026401000000009004565b151515620001c057600080fd5b60018260000160008373ffffffffffffffffffffffffffffffffffffffff1673ffffffffffffffffffffffffffffffffffffffff16815260200190815260200160002060006101000a81548160ff0219169083151502179055505050565b60008073ffffffffffffffffffffffffffffffffffffffff168273ffffffffffffffffffffffffffffffffffffffff16141515156200025c57600080fd5b8260000160008373ffffffffffffffffffffffffffffffffffffffff1673ffffffffffffffffffffffffffffffffffffffff16815260200190815260200160002060009054906101000a900460ff16905092915050565b610fe780620002c36000396000f3006080604052600436106100af576000357c0100000000000000000000000000000000000000000000000000000000900463ffffffff16806319022944146100b45780633a8b7435146100de57806341c0e1b5146101715780634780468f146101885780634adde770146101cb5780636d263ceb146102485780636d87239c1461028b57806381a07c36146102d85780638f9c79ed146102ef578063996440c61461034a578063a11062d2146103a5575b600080fd5b6100dc60048036038101908080359060200190929190803590602001909291905050506103bc565b005b3480156100ea57600080fd5b5061016f60048036038101908080359060200190929190803590602001908201803590602001908080601f0160208091040260200160405190810160405280939291908181526020018383808284378201915050505050509192919290803573ffffffffffffffffffffffffffffffffffffffff16906020019092919050505061059a565b005b34801561017d57600080fd5b506101866107ac565b005b34801561019457600080fd5b506101c9600480360381019080803573ffffffffffffffffffffffffffffffffffffffff16906020019092919050505061083f565b005b3480156101d757600080fd5b5061024660048036038101908080359060200190929190803590602001908201803590602001908080601f01602080910402602001604051908101604052809392919081815260200183838082843782019150505050505091929192908035906020019092919050505061085f565b005b34801561025457600080fd5b50610289600480360381019080803573ffffffffffffffffffffffffffffffffffffffff169060200190929190505050610953565b005b34801561029757600080fd5b506102d660048036038101908080359060200190929190803573ffffffffffffffffffffffffffffffffffffffff169060200190929190505050610973565b005b3480156102e457600080fd5b506102ed610a60565b005b3480156102fb57600080fd5b50610330600480360381019080803573ffffffffffffffffffffffffffffffffffffffff169060200190929190505050610a6b565b604051808215151515815260200191505060405180910390f35b34801561035657600080fd5b5061038b600480360381019080803573ffffffffffffffffffffffffffffffffffffffff169060200190929190505050610a88565b604051808215151515815260200191505060405180910390f35b3480156103b157600080fd5b506103ba610aa5565b005b6005600083815260200190815260200160002060040160009054906101000a900473ffffffffffffffffffffffffffffffffffffffff168073ffffffffffffffffffffffffffffffffffffffff163373ffffffffffffffffffffffffffffffffffffffff1614151561042d57600080fd5b600560008481526020019081526020016000206005015480341015151561045357600080fd5b6005600085815260200190815260200160002060030160009054906101000a900473ffffffffffffffffffffffffffffffffffffffff1673ffffffffffffffffffffffffffffffffffffffff166108fc849081150290604051600060405180830381858888f193505050501580156104cf573d6000803e3d6000fd5b50336005600086815260200190815260200160002060020160006101000a81548173ffffffffffffffffffffffffffffffffffffffff021916908373ffffffffffffffffffffffffffffffffffffffff16021790555060026005600086815260200190815260200160002060040160146101000a81548160ff0219169083600281111561055857fe5b02179055507fdfd517ed69f8a0a57d49fe494e4864fac3cfe3585c14c0bfddf39f72463ec3fd846040518082815260200191505060405180910390a150505050565b6105a2610e0b565b60e0604051908101604052808581526020018481526020013373ffffffffffffffffffffffffffffffffffffffff1681526020013373ffffffffffffffffffffffffffffffffffffffff1681526020018373ffffffffffffffffffffffffffffffffffffffff1681526020016000600281111561061b57fe5b8152602001600081525090508060056000868152602001908152602001600020600082015181600001556020820151816001019080519060200190610661929190610e96565b5060408201518160020160006101000a81548173ffffffffffffffffffffffffffffffffffffffff021916908373ffffffffffffffffffffffffffffffffffffffff16021790555060608201518160030160006101000a81548173ffffffffffffffffffffffffffffffffffffffff021916908373ffffffffffffffffffffffffffffffffffffffff16021790555060808201518160040160006101000a81548173ffffffffffffffffffffffffffffffffffffffff021916908373ffffffffffffffffffffffffffffffffffffffff16021790555060a08201518160040160146101000a81548160ff0219169083600281111561075b57fe5b021790555060c082015181600501559050507fbe9b076dc5b65990cca9dd9d7366682482e7817a6f6bc7f4faf4dc32af497f326003546040518082815260200191505060405180910390a150505050565b600260009054906101000a900473ffffffffffffffffffffffffffffffffffffffff1673ffffffffffffffffffffffffffffffffffffffff163373ffffffffffffffffffffffffffffffffffffffff16141561083d57600260009054906101000a900473ffffffffffffffffffffffffffffffffffffffff1673ffffffffffffffffffffffffffffffffffffffff16ff5b565b61084833610a88565b151561085357600080fd5b61085c81610ab0565b50565b6005600084815260200190815260200160002060020160009054906101000a900473ffffffffffffffffffffffffffffffffffffffff168073ffffffffffffffffffffffffffffffffffffffff163373ffffffffffffffffffffffffffffffffffffffff161415156108d057600080fd5b826005600086815260200190815260200160002060010190805190602001906108fa929190610f16565b508160056000868152602001908152602001600020600501819055507f208509800c5cb9707f116ef96a1d456499ab9fa3c8edc1cdf381fe5216d5b173846040518082815260200191505060405180910390a150505050565b61095c33610a6b565b151561096757600080fd5b61097081610b0a565b50565b6005600083815260200190815260200160002060020160009054906101000a900473ffffffffffffffffffffffffffffffffffffffff168073ffffffffffffffffffffffffffffffffffffffff163373ffffffffffffffffffffffffffffffffffffffff161415156109e457600080fd5b600460008481526020019081526020016000208290806001815401808255809150509060018203906000526020600020016000909192909190916101000a81548173ffffffffffffffffffffffffffffffffffffffff021916908373ffffffffffffffffffffffffffffffffffffffff16021790555050505050565b610a6933610b64565b565b6000610a81826001610bbe90919063ffffffff16565b9050919050565b6000610a9e826000610bbe90919063ffffffff16565b9050919050565b610aae33610c52565b565b610ac4816000610cac90919063ffffffff16565b8073ffffffffffffffffffffffffffffffffffffffff167f69908b2e63170aa89ef89719bbe3b4c92cccc38653968ab25f4464eff7c28ac860405160405180910390a250565b610b1e816001610cac90919063ffffffff16565b8073ffffffffffffffffffffffffffffffffffffffff167fa58cff07db0adda3ab7a40bd2f18ab57210bf38391a52ffd2e8eee6b8bdec71a60405160405180910390a250565b610b78816001610d5c90919063ffffffff16565b8073ffffffffffffffffffffffffffffffffffffffff167f053a4badf166f01c4b02f6bcb71d2d67734470d0866282e291e73001aa25c76960405160405180910390a250565b60008073ffffffffffffffffffffffffffffffffffffffff168273ffffffffffffffffffffffffffffffffffffffff1614151515610bfb57600080fd5b8260000160008373ffffffffffffffffffffffffffffffffffffffff1673ffffffffffffffffffffffffffffffffffffffff16815260200190815260200160002060009054906101000a900460ff16905092915050565b610c66816000610d5c90919063ffffffff16565b8073ffffffffffffffffffffffffffffffffffffffff167f493d7cf6a7c880406a55654d6727464ea088bd01d40498e1987a327e68961ab860405160405180910390a250565b600073ffffffffffffffffffffffffffffffffffffffff168173ffffffffffffffffffffffffffffffffffffffff1614151515610ce857600080fd5b610cf28282610bbe565b151515610cfe57600080fd5b60018260000160008373ffffffffffffffffffffffffffffffffffffffff1673ffffffffffffffffffffffffffffffffffffffff16815260200190815260200160002060006101000a81548160ff0219169083151502179055505050565b600073ffffffffffffffffffffffffffffffffffffffff168173ffffffffffffffffffffffffffffffffffffffff1614151515610d9857600080fd5b610da28282610bbe565b1515610dad57600080fd5b60008260000160008373ffffffffffffffffffffffffffffffffffffffff1673ffffffffffffffffffffffffffffffffffffffff16815260200190815260200160002060006101000a81548160ff0219169083151502179055505050565b60e0604051908101604052806000815260200160608152602001600073ffffffffffffffffffffffffffffffffffffffff168152602001600073ffffffffffffffffffffffffffffffffffffffff168152602001600073ffffffffffffffffffffffffffffffffffffffff16815260200160006002811115610e8957fe5b8152602001600081525090565b828054600181600116156101000203166002900490600052602060002090601f016020900481019282601f10610ed757805160ff1916838001178555610f05565b82800160010185558215610f05579182015b82811115610f04578251825591602001919060010190610ee9565b5b509050610f129190610f96565b5090565b828054600181600116156101000203166002900490600052602060002090601f016020900481019282601f10610f5757805160ff1916838001178555610f85565b82800160010185558215610f85579182015b82811115610f84578251825591602001919060010190610f69565b5b509050610f929190610f96565b5090565b610fb891905b80821115610fb4576000816000905550600101610f9c565b5090565b905600a165627a7a7230582066056e6c79779585a4b90d88bfccd016872ed2c9fd9c630c5c33337460bc06dc0029",
  "source": "pragma solidity ^0.4.24;\n\nimport \"@nomiclabs/buidler/console.sol\";\nimport \"../medicalAccesscontrol/PatientRole.sol\";\nimport \"../medicalAccesscontrol/DoctorRole.sol\";\nimport \"../medicalCore/Ownable.sol\";\n\n// Define a contract 'Supplychain'\ncontract SupplyChain is DoctorRole, PatientRole {\n    // Define 'owner'\n    address owner;\n\n    // Define a variable called 'sku' for Stock Keeping Unit (SKU)\n    uint256 sku;\n\n    // maintain the list of doctors who can access to one medical record (SKU)\n    mapping(uint256 => address[]) readers;\n\n    // Define enum 'State' with the following values:\n    enum State {\n        Initialized, // 0\n        Updating, // 1\n        Complete // 2\n    }\n\n    State constant defaultState = State.Initialized;\n\n    // Define a struct 'Item' with the following fields:\n    struct MedicalRecord {\n        uint256 sku;\n        string file;\n        address owner; // can be doctor or patient depends on the status of the item\n        address fromDoctor;\n        address forPatient;\n        State status;\n        uint256 price;\n    }\n\n    mapping(uint256 => MedicalRecord) items;\n\n    event Initialized(uint256 sku);\n    event Updated(uint256 sku);\n    event Completed(uint256 sku);\n\n    // Define a modifer that checks to see if msg.sender == owner of the contract\n    modifier onlyOwner() {\n        require(msg.sender == owner);\n        _;\n    }\n\n    // Define a modifer that verifies the Caller\n    modifier verifyCaller(address _address) {\n        require(msg.sender == _address);\n        _;\n    }\n\n    // Define a modifier that checks if the paid amount is sufficient to cover the price\n    modifier paidEnough(uint256 _price) {\n        require(msg.value >= _price);\n        _;\n    }\n\n    // Define a modifier that checks if an item.state of a upc is Harvested\n    modifier initialized(uint256 _sku) {\n        require(items[_sku].status == State.Initialized);\n        _;\n    }\n\n    // Define a modifier that checks if an item.state of a upc is Processed\n    modifier updating(State _state) {\n        require(_state == State.Updating);\n        _;\n    }\n\n    constructor() public payable {\n        owner = msg.sender;\n        sku = 1;\n    }\n\n    function kill() public {\n        if (msg.sender == owner) {\n            selfdestruct(owner);\n        }\n    }\n\n    function createMDR(\n        uint256 _sku,\n        string _file,\n        address _forPatient\n    ) public {\n        // console.log(\"console log %s %s %s \", _file, _doctor, _forPatient); onlyDoctor\n        MedicalRecord memory mdr = MedicalRecord({\n            sku: _sku,\n            file: _file,\n            owner: msg.sender,\n            fromDoctor: msg.sender,\n            forPatient: _forPatient,\n            status: State.Initialized,\n            price: 0\n        });\n\n        items[_sku] = mdr;\n        // sku = sku + 1;\n        emit Initialized(sku);\n    }\n\n    function updateMDR(\n        uint256 _sku,\n        string _file,\n        uint256 _price\n    ) public verifyCaller(items[_sku].owner) {\n        items[_sku].file = _file;\n        items[_sku].price = _price;\n\n        emit Updated(_sku);\n    }\n\n    function payMDR(uint256 _sku, uint256 _price)\n        public\n        payable\n        verifyCaller(items[_sku].forPatient) \n        paidEnough(items[_sku].price)\n    {\n        // updating(items[_sku].status) \n        // paidEnough(items[_sku].price) \n        // verifyCaller(items[_sku].forPatient)\n\n        // Transfer money to doctor\n        items[_sku].fromDoctor.transfer(_price);\n        items[_sku].owner = msg.sender;\n        items[_sku].status = State.Complete;\n\n        emit Completed(_sku);\n    }\n\n    function shareMDR(uint256 _sku, address forDoctor)\n        public verifyCaller(items[_sku].owner) \n    {\n        readers[_sku].push(forDoctor);\n    }\n}\n",
  "sourcePath": "/Users/vinhnguyen/Projects/learn/blockchain/Udacity/blockchain-nanodegree/nd1309-supply-chain/contracts/medicalBase/SupplyChain.sol",
  "compiler": {
    "name": "solc",
    "version": "0.4.26+commit.4563c3fc.Emscripten.clang"
  },
  "schemaVersion": "2.0.3",
  "updatedAt": "2021-11-14T11:01:47.398Z"
}