{
  "contractName": "SupplyChain",
  "abi": [
    {
      "constant": false,
      "inputs": [
        {
          "name": "account",
          "type": "address"
        }
      ],
      "name": "addDoctor",
      "outputs": [],
      "payable": false,
      "stateMutability": "nonpayable",
      "type": "function"
    },
    {
      "constant": false,
      "inputs": [
        {
          "name": "account",
          "type": "address"
        }
      ],
      "name": "addPatient",
      "outputs": [],
      "payable": false,
      "stateMutability": "nonpayable",
      "type": "function"
    },
    {
      "constant": false,
      "inputs": [],
      "name": "renouncePatient",
      "outputs": [],
      "payable": false,
      "stateMutability": "nonpayable",
      "type": "function"
    },
    {
      "constant": true,
      "inputs": [
        {
          "name": "account",
          "type": "address"
        }
      ],
      "name": "isPatient",
      "outputs": [
        {
          "name": "",
          "type": "bool"
        }
      ],
      "payable": false,
      "stateMutability": "view",
      "type": "function"
    },
    {
      "constant": true,
      "inputs": [
        {
          "name": "account",
          "type": "address"
        }
      ],
      "name": "isDoctor",
      "outputs": [
        {
          "name": "",
          "type": "bool"
        }
      ],
      "payable": false,
      "stateMutability": "view",
      "type": "function"
    },
    {
      "constant": false,
      "inputs": [],
      "name": "renounceDoctor",
      "outputs": [],
      "payable": false,
      "stateMutability": "nonpayable",
      "type": "function"
    },
    {
      "inputs": [],
      "payable": true,
      "stateMutability": "payable",
      "type": "constructor"
    },
    {
      "anonymous": false,
      "inputs": [
        {
          "indexed": false,
          "name": "sku",
          "type": "uint256"
        }
      ],
      "name": "Initialized",
      "type": "event"
    },
    {
      "anonymous": false,
      "inputs": [
        {
          "indexed": false,
          "name": "sku",
          "type": "uint256"
        }
      ],
      "name": "Updated",
      "type": "event"
    },
    {
      "anonymous": false,
      "inputs": [
        {
          "indexed": false,
          "name": "sku",
          "type": "uint256"
        }
      ],
      "name": "Completed",
      "type": "event"
    },
    {
      "anonymous": false,
      "inputs": [
        {
          "indexed": true,
          "name": "account",
          "type": "address"
        }
      ],
      "name": "PatientAdded",
      "type": "event"
    },
    {
      "anonymous": false,
      "inputs": [
        {
          "indexed": true,
          "name": "account",
          "type": "address"
        }
      ],
      "name": "PatientRemoved",
      "type": "event"
    },
    {
      "anonymous": false,
      "inputs": [
        {
          "indexed": true,
          "name": "account",
          "type": "address"
        }
      ],
      "name": "DoctorAdded",
      "type": "event"
    },
    {
      "anonymous": false,
      "inputs": [
        {
          "indexed": true,
          "name": "account",
          "type": "address"
        }
      ],
      "name": "DoctorRemoved",
      "type": "event"
    },
    {
      "constant": false,
      "inputs": [],
      "name": "kill",
      "outputs": [],
      "payable": false,
      "stateMutability": "nonpayable",
      "type": "function"
    },
    {
      "constant": false,
      "inputs": [
        {
          "name": "_file",
          "type": "string"
        },
        {
          "name": "_forPatient",
          "type": "address"
        }
      ],
      "name": "createMDR",
      "outputs": [],
      "payable": false,
      "stateMutability": "nonpayable",
      "type": "function"
    },
    {
      "constant": false,
      "inputs": [
        {
          "name": "_sku",
          "type": "uint256"
        },
        {
          "name": "_file",
          "type": "string"
        },
        {
          "name": "_price",
          "type": "uint256"
        }
      ],
      "name": "updateMDR",
      "outputs": [],
      "payable": false,
      "stateMutability": "nonpayable",
      "type": "function"
    },
    {
      "constant": false,
      "inputs": [
        {
          "name": "_sku",
          "type": "uint256"
        }
      ],
      "name": "payMDR",
      "outputs": [],
      "payable": true,
      "stateMutability": "payable",
      "type": "function"
    },
    {
      "constant": false,
      "inputs": [
        {
          "name": "_sku",
          "type": "uint256"
        },
        {
          "name": "forDoctor",
          "type": "address"
        }
      ],
      "name": "shareMDR",
      "outputs": [],
      "payable": false,
      "stateMutability": "nonpayable",
      "type": "function"
    }
  ],
  "bytecode": "0x60806040526200001e3362000087640100000000026401000000009004565b6200003833620000f1640100000000026401000000009004565b33600260006101000a81548173ffffffffffffffffffffffffffffffffffffffff021916908373ffffffffffffffffffffffffffffffffffffffff1602179055506001600381905550620002b3565b620000ab8160006200015b6401000000000262000c22179091906401000000009004565b8073ffffffffffffffffffffffffffffffffffffffff167f69908b2e63170aa89ef89719bbe3b4c92cccc38653968ab25f4464eff7c28ac860405160405180910390a250565b620001158160016200015b6401000000000262000c22179091906401000000009004565b8073ffffffffffffffffffffffffffffffffffffffff167fa58cff07db0adda3ab7a40bd2f18ab57210bf38391a52ffd2e8eee6b8bdec71a60405160405180910390a250565b600073ffffffffffffffffffffffffffffffffffffffff168173ffffffffffffffffffffffffffffffffffffffff16141515156200019857600080fd5b620001b382826200021e640100000000026401000000009004565b151515620001c057600080fd5b60018260000160008373ffffffffffffffffffffffffffffffffffffffff1673ffffffffffffffffffffffffffffffffffffffff16815260200190815260200160002060006101000a81548160ff0219169083151502179055505050565b60008073ffffffffffffffffffffffffffffffffffffffff168273ffffffffffffffffffffffffffffffffffffffff16141515156200025c57600080fd5b8260000160008373ffffffffffffffffffffffffffffffffffffffff1673ffffffffffffffffffffffffffffffffffffffff16815260200190815260200160002060009054906101000a900460ff16905092915050565b610f5d80620002c36000396000f3006080604052600436106100af576000357c0100000000000000000000000000000000000000000000000000000000900463ffffffff16806341c0e1b5146100b45780634780468f146100cb5780634adde7701461010e5780634d63213d1461018b5780636d263ceb146101ab5780636d87239c146101ee57806381a07c361461023b57806382a5255f146102525780638f9c79ed146102db578063996440c614610336578063a11062d214610391575b600080fd5b3480156100c057600080fd5b506100c96103a8565b005b3480156100d757600080fd5b5061010c600480360381019080803573ffffffffffffffffffffffffffffffffffffffff16906020019092919050505061043b565b005b34801561011a57600080fd5b5061018960048036038101908080359060200190929190803590602001908201803590602001908080601f01602080910402602001604051908101604052809392919081815260200183838082843782019150505050505091929192908035906020019092919050505061045b565b005b6101a96004803603810190808035906020019092919050505061054f565b005b3480156101b757600080fd5b506101ec600480360381019080803573ffffffffffffffffffffffffffffffffffffffff16906020019092919050505061071a565b005b3480156101fa57600080fd5b5061023960048036038101908080359060200190929190803573ffffffffffffffffffffffffffffffffffffffff16906020019092919050505061073a565b005b34801561024757600080fd5b506102506107b5565b005b34801561025e57600080fd5b506102d9600480360381019080803590602001908201803590602001908080601f0160208091040260200160405190810160405280939291908181526020018383808284378201915050505050509192919290803573ffffffffffffffffffffffffffffffffffffffff1690602001909291905050506107c0565b005b3480156102e757600080fd5b5061031c600480360381019080803573ffffffffffffffffffffffffffffffffffffffff1690602001909291905050506109e1565b604051808215151515815260200191505060405180910390f35b34801561034257600080fd5b50610377600480360381019080803573ffffffffffffffffffffffffffffffffffffffff1690602001909291905050506109fe565b604051808215151515815260200191505060405180910390f35b34801561039d57600080fd5b506103a6610a1b565b005b600260009054906101000a900473ffffffffffffffffffffffffffffffffffffffff1673ffffffffffffffffffffffffffffffffffffffff163373ffffffffffffffffffffffffffffffffffffffff16141561043957600260009054906101000a900473ffffffffffffffffffffffffffffffffffffffff1673ffffffffffffffffffffffffffffffffffffffff16ff5b565b610444336109fe565b151561044f57600080fd5b61045881610a26565b50565b6005600084815260200190815260200160002060020160009054906101000a900473ffffffffffffffffffffffffffffffffffffffff168073ffffffffffffffffffffffffffffffffffffffff163373ffffffffffffffffffffffffffffffffffffffff161415156104cc57600080fd5b826005600086815260200190815260200160002060010190805190602001906104f6929190610d81565b508160056000868152602001908152602001600020600501819055507f208509800c5cb9707f116ef96a1d456499ab9fa3c8edc1cdf381fe5216d5b173846040518082815260200191505060405180910390a150505050565b600560008281526020019081526020016000206005015480341015151561057557600080fd5b816001600281111561058357fe5b6005600083815260200190815260200160002060040160149054906101000a900460ff1660028111156105b257fe5b1415156105be57600080fd5b6005600084815260200190815260200160002060030160009054906101000a900473ffffffffffffffffffffffffffffffffffffffff1673ffffffffffffffffffffffffffffffffffffffff166108fc60056000868152602001908152602001600020600501549081150290604051600060405180830381858888f19350505050158015610650573d6000803e3d6000fd5b50336005600085815260200190815260200160002060020160006101000a81548173ffffffffffffffffffffffffffffffffffffffff021916908373ffffffffffffffffffffffffffffffffffffffff16021790555060026005600085815260200190815260200160002060040160146101000a81548160ff021916908360028111156106d957fe5b02179055507fdfd517ed69f8a0a57d49fe494e4864fac3cfe3585c14c0bfddf39f72463ec3fd836040518082815260200191505060405180910390a1505050565b610723336109e1565b151561072e57600080fd5b61073781610a80565b50565b600460008381526020019081526020016000208190806001815401808255809150509060018203906000526020600020016000909192909190916101000a81548173ffffffffffffffffffffffffffffffffffffffff021916908373ffffffffffffffffffffffffffffffffffffffff160217905550505050565b6107be33610ada565b565b6107c8610e01565b60e06040519081016040528060035481526020018481526020013373ffffffffffffffffffffffffffffffffffffffff1681526020013373ffffffffffffffffffffffffffffffffffffffff1681526020018373ffffffffffffffffffffffffffffffffffffffff1681526020016000600281111561084357fe5b8152602001600081525090508060056000600354815260200190815260200160002060008201518160000155602082015181600101908051906020019061088b929190610e8c565b5060408201518160020160006101000a81548173ffffffffffffffffffffffffffffffffffffffff021916908373ffffffffffffffffffffffffffffffffffffffff16021790555060608201518160030160006101000a81548173ffffffffffffffffffffffffffffffffffffffff021916908373ffffffffffffffffffffffffffffffffffffffff16021790555060808201518160040160006101000a81548173ffffffffffffffffffffffffffffffffffffffff021916908373ffffffffffffffffffffffffffffffffffffffff16021790555060a08201518160040160146101000a81548160ff0219169083600281111561098557fe5b021790555060c082015181600501559050506001600354016003819055507fbe9b076dc5b65990cca9dd9d7366682482e7817a6f6bc7f4faf4dc32af497f326003546040518082815260200191505060405180910390a1505050565b60006109f7826001610b3490919063ffffffff16565b9050919050565b6000610a14826000610b3490919063ffffffff16565b9050919050565b610a2433610bc8565b565b610a3a816000610c2290919063ffffffff16565b8073ffffffffffffffffffffffffffffffffffffffff167f69908b2e63170aa89ef89719bbe3b4c92cccc38653968ab25f4464eff7c28ac860405160405180910390a250565b610a94816001610c2290919063ffffffff16565b8073ffffffffffffffffffffffffffffffffffffffff167fa58cff07db0adda3ab7a40bd2f18ab57210bf38391a52ffd2e8eee6b8bdec71a60405160405180910390a250565b610aee816001610cd290919063ffffffff16565b8073ffffffffffffffffffffffffffffffffffffffff167f053a4badf166f01c4b02f6bcb71d2d67734470d0866282e291e73001aa25c76960405160405180910390a250565b60008073ffffffffffffffffffffffffffffffffffffffff168273ffffffffffffffffffffffffffffffffffffffff1614151515610b7157600080fd5b8260000160008373ffffffffffffffffffffffffffffffffffffffff1673ffffffffffffffffffffffffffffffffffffffff16815260200190815260200160002060009054906101000a900460ff16905092915050565b610bdc816000610cd290919063ffffffff16565b8073ffffffffffffffffffffffffffffffffffffffff167f493d7cf6a7c880406a55654d6727464ea088bd01d40498e1987a327e68961ab860405160405180910390a250565b600073ffffffffffffffffffffffffffffffffffffffff168173ffffffffffffffffffffffffffffffffffffffff1614151515610c5e57600080fd5b610c688282610b34565b151515610c7457600080fd5b60018260000160008373ffffffffffffffffffffffffffffffffffffffff1673ffffffffffffffffffffffffffffffffffffffff16815260200190815260200160002060006101000a81548160ff0219169083151502179055505050565b600073ffffffffffffffffffffffffffffffffffffffff168173ffffffffffffffffffffffffffffffffffffffff1614151515610d0e57600080fd5b610d188282610b34565b1515610d2357600080fd5b60008260000160008373ffffffffffffffffffffffffffffffffffffffff1673ffffffffffffffffffffffffffffffffffffffff16815260200190815260200160002060006101000a81548160ff0219169083151502179055505050565b828054600181600116156101000203166002900490600052602060002090601f016020900481019282601f10610dc257805160ff1916838001178555610df0565b82800160010185558215610df0579182015b82811115610def578251825591602001919060010190610dd4565b5b509050610dfd9190610f0c565b5090565b60e0604051908101604052806000815260200160608152602001600073ffffffffffffffffffffffffffffffffffffffff168152602001600073ffffffffffffffffffffffffffffffffffffffff168152602001600073ffffffffffffffffffffffffffffffffffffffff16815260200160006002811115610e7f57fe5b8152602001600081525090565b828054600181600116156101000203166002900490600052602060002090601f016020900481019282601f10610ecd57805160ff1916838001178555610efb565b82800160010185558215610efb579182015b82811115610efa578251825591602001919060010190610edf565b5b509050610f089190610f0c565b5090565b610f2e91905b80821115610f2a576000816000905550600101610f12565b5090565b905600a165627a7a72305820c74ac51eb3459abf2667edf604107ee7e2bbe9814e0b83ec40508eebd02e52520029",
  "source": "pragma solidity ^0.4.24;\n\nimport \"@nomiclabs/buidler/console.sol\";\nimport \"../medicalAccesscontrol/PatientRole.sol\";\nimport \"../medicalAccesscontrol/DoctorRole.sol\";\nimport \"../medicalCore/Ownable.sol\";\n\n// Define a contract 'Supplychain'\ncontract SupplyChain is DoctorRole, PatientRole {\n    // Define 'owner'\n    address owner;\n\n    // Define a variable called 'sku' for Stock Keeping Unit (SKU)\n    uint256 sku;\n\n    // maintain the list of doctors who can access to one medical record (SKU)\n    mapping(uint256 => address[]) readers;\n\n    // Define enum 'State' with the following values:\n    enum State {\n        Initialized, // 0\n        Updating, // 1\n        Complete // 2\n    }\n\n    State constant defaultState = State.Initialized;\n\n    // Define a struct 'Item' with the following fields:\n    struct MedicalRecord {\n        uint256 sku;\n        string file;\n        address owner; // can be doctor or patient depends on the status of the item\n        address fromDoctor;\n        address forPatient;\n        State status;\n        uint256 price;\n    }\n\n    mapping(uint256 => MedicalRecord) items;\n\n    event Initialized(uint256 sku);\n    event Updated(uint256 sku);\n    event Completed(uint256 sku);\n\n    // Define a modifer that checks to see if msg.sender == owner of the contract\n    modifier onlyOwner() {\n        require(msg.sender == owner);\n        _;\n    }\n\n    // Define a modifer that verifies the Caller\n    modifier verifyCaller(address _address) {\n        require(msg.sender == _address);\n        _;\n    }\n\n    // Define a modifier that checks if the paid amount is sufficient to cover the price\n    modifier paidEnough(uint256 _price) {\n        require(msg.value >= _price);\n        _;\n    }\n\n    // Define a modifier that checks if an item.state of a upc is Harvested\n    modifier initialized(uint256 _sku) {\n        require(items[_sku].status == State.Initialized);\n        _;\n    }\n\n    // Define a modifier that checks if an item.state of a upc is Processed\n    modifier updating(uint256 _sku) {\n        require(items[_sku].status == State.Updating);\n        _;\n    }\n\n    constructor() public payable {\n        owner = msg.sender;\n        sku = 1;\n    }\n\n    function kill() public {\n        if (msg.sender == owner) {\n            selfdestruct(owner);\n        }\n    }\n\n    function createMDR(\n        string _file,\n        address _forPatient\n    ) public {\n        // console.log(\"console log %s %s %s \", _file, _doctor, _forPatient); onlyDoctor\n        MedicalRecord memory mdr = MedicalRecord({\n            sku: sku,\n            file: _file,\n            owner: msg.sender,\n            fromDoctor: msg.sender,\n            forPatient: _forPatient,\n            status: State.Initialized,\n            price: 0\n        });\n\n        items[sku] = mdr;\n        sku = sku + 1;\n        emit Initialized(sku);\n    }\n\n    function updateMDR(\n        uint256 _sku,\n        string _file,\n        uint256 _price\n    ) public verifyCaller(items[_sku].owner) {\n        // onlyOwnerSku(_sku)\n        items[_sku].file = _file;\n        items[_sku].price = _price;\n\n        emit Updated(_sku);\n    }\n\n    function payMDR(uint256 _sku)\n        public\n        payable\n        paidEnough(items[_sku].price)\n        updating(_sku)\n    {\n        // Transfer money to doctor\n        items[_sku].fromDoctor.transfer(items[_sku].price);\n        items[_sku].owner = msg.sender;\n        items[_sku].status = State.Complete;\n\n        emit Completed(_sku);\n    }\n\n    function shareMDR(uint256 _sku, address forDoctor)\n        public\n        // onlyOwnerSku(_sku)\n    {\n        readers[_sku].push(forDoctor);\n    }\n}\n",
  "sourcePath": "/Users/vinhnguyen/Projects/learn/blockchain/Udacity/blockchain-nanodegree/nd1309-supply-chain/contracts/medicalBase/SupplyChain.sol",
  "compiler": {
    "name": "solc",
    "version": "0.4.26+commit.4563c3fc.Emscripten.clang"
  },
  "schemaVersion": "2.0.3",
  "updatedAt": "2021-11-14T09:41:55.731Z"
}