{
  "contractName": "SupplyChain",
  "abi": [
    {
      "constant": false,
      "inputs": [
        {
          "name": "account",
          "type": "address"
        }
      ],
      "name": "addDoctor",
      "outputs": [],
      "payable": false,
      "stateMutability": "nonpayable",
      "type": "function"
    },
    {
      "constant": false,
      "inputs": [
        {
          "name": "account",
          "type": "address"
        }
      ],
      "name": "addPatient",
      "outputs": [],
      "payable": false,
      "stateMutability": "nonpayable",
      "type": "function"
    },
    {
      "constant": false,
      "inputs": [],
      "name": "renouncePatient",
      "outputs": [],
      "payable": false,
      "stateMutability": "nonpayable",
      "type": "function"
    },
    {
      "constant": true,
      "inputs": [
        {
          "name": "account",
          "type": "address"
        }
      ],
      "name": "isPatient",
      "outputs": [
        {
          "name": "",
          "type": "bool"
        }
      ],
      "payable": false,
      "stateMutability": "view",
      "type": "function"
    },
    {
      "constant": true,
      "inputs": [
        {
          "name": "account",
          "type": "address"
        }
      ],
      "name": "isDoctor",
      "outputs": [
        {
          "name": "",
          "type": "bool"
        }
      ],
      "payable": false,
      "stateMutability": "view",
      "type": "function"
    },
    {
      "constant": false,
      "inputs": [],
      "name": "renounceDoctor",
      "outputs": [],
      "payable": false,
      "stateMutability": "nonpayable",
      "type": "function"
    },
    {
      "inputs": [],
      "payable": true,
      "stateMutability": "payable",
      "type": "constructor"
    },
    {
      "anonymous": false,
      "inputs": [
        {
          "indexed": false,
          "name": "sku",
          "type": "uint256"
        }
      ],
      "name": "Initialized",
      "type": "event"
    },
    {
      "anonymous": false,
      "inputs": [
        {
          "indexed": false,
          "name": "sku",
          "type": "uint256"
        }
      ],
      "name": "Updated",
      "type": "event"
    },
    {
      "anonymous": false,
      "inputs": [
        {
          "indexed": false,
          "name": "sku",
          "type": "uint256"
        }
      ],
      "name": "Completed",
      "type": "event"
    },
    {
      "anonymous": false,
      "inputs": [
        {
          "indexed": true,
          "name": "account",
          "type": "address"
        }
      ],
      "name": "PatientAdded",
      "type": "event"
    },
    {
      "anonymous": false,
      "inputs": [
        {
          "indexed": true,
          "name": "account",
          "type": "address"
        }
      ],
      "name": "PatientRemoved",
      "type": "event"
    },
    {
      "anonymous": false,
      "inputs": [
        {
          "indexed": true,
          "name": "account",
          "type": "address"
        }
      ],
      "name": "DoctorAdded",
      "type": "event"
    },
    {
      "anonymous": false,
      "inputs": [
        {
          "indexed": true,
          "name": "account",
          "type": "address"
        }
      ],
      "name": "DoctorRemoved",
      "type": "event"
    },
    {
      "constant": false,
      "inputs": [],
      "name": "kill",
      "outputs": [],
      "payable": false,
      "stateMutability": "nonpayable",
      "type": "function"
    },
    {
      "constant": false,
      "inputs": [
        {
          "name": "_file",
          "type": "string"
        },
        {
          "name": "_doctor",
          "type": "address"
        },
        {
          "name": "_forPatient",
          "type": "address"
        }
      ],
      "name": "createMDR",
      "outputs": [],
      "payable": false,
      "stateMutability": "nonpayable",
      "type": "function"
    },
    {
      "constant": false,
      "inputs": [
        {
          "name": "_sku",
          "type": "uint256"
        },
        {
          "name": "_file",
          "type": "string"
        },
        {
          "name": "_price",
          "type": "uint256"
        }
      ],
      "name": "updateMDR",
      "outputs": [],
      "payable": false,
      "stateMutability": "nonpayable",
      "type": "function"
    },
    {
      "constant": false,
      "inputs": [
        {
          "name": "_sku",
          "type": "uint256"
        }
      ],
      "name": "payMDR",
      "outputs": [],
      "payable": true,
      "stateMutability": "payable",
      "type": "function"
    },
    {
      "constant": false,
      "inputs": [
        {
          "name": "_sku",
          "type": "uint256"
        },
        {
          "name": "forDoctor",
          "type": "address"
        }
      ],
      "name": "shareMDR",
      "outputs": [],
      "payable": false,
      "stateMutability": "nonpayable",
      "type": "function"
    }
  ],
  "bytecode": "0x60806040526200001e3362000087640100000000026401000000009004565b6200003833620000f1640100000000026401000000009004565b33600260006101000a81548173ffffffffffffffffffffffffffffffffffffffff021916908373ffffffffffffffffffffffffffffffffffffffff1602179055506001600381905550620002b3565b620000ab8160006200015b6401000000000262000d77179091906401000000009004565b8073ffffffffffffffffffffffffffffffffffffffff167f69908b2e63170aa89ef89719bbe3b4c92cccc38653968ab25f4464eff7c28ac860405160405180910390a250565b620001158160016200015b6401000000000262000d77179091906401000000009004565b8073ffffffffffffffffffffffffffffffffffffffff167fa58cff07db0adda3ab7a40bd2f18ab57210bf38391a52ffd2e8eee6b8bdec71a60405160405180910390a250565b600073ffffffffffffffffffffffffffffffffffffffff168173ffffffffffffffffffffffffffffffffffffffff16141515156200019857600080fd5b620001b382826200021e640100000000026401000000009004565b151515620001c057600080fd5b60018260000160008373ffffffffffffffffffffffffffffffffffffffff1673ffffffffffffffffffffffffffffffffffffffff16815260200190815260200160002060006101000a81548160ff0219169083151502179055505050565b60008073ffffffffffffffffffffffffffffffffffffffff168273ffffffffffffffffffffffffffffffffffffffff16141515156200025c57600080fd5b8260000160008373ffffffffffffffffffffffffffffffffffffffff1673ffffffffffffffffffffffffffffffffffffffff16815260200190815260200160002060009054906101000a900460ff16905092915050565b61105a80620002c36000396000f3006080604052600436106100af576000357c0100000000000000000000000000000000000000000000000000000000900463ffffffff16806341c0e1b5146100b45780634780468f146100cb5780634adde7701461010e5780634d63213d1461018b57806368c0d285146101ab5780636d263ceb146102545780636d87239c1461029757806381a07c36146102e45780638f9c79ed146102fb578063996440c614610356578063a11062d2146103b1575b600080fd5b3480156100c057600080fd5b506100c96103c8565b005b3480156100d757600080fd5b5061010c600480360381019080803573ffffffffffffffffffffffffffffffffffffffff16906020019092919050505061045b565b005b34801561011a57600080fd5b5061018960048036038101908080359060200190929190803590602001908201803590602001908080601f01602080910402602001604051908101604052809392919081815260200183838082843782019150505050505091929192908035906020019092919050505061047b565b005b6101a96004803603810190808035906020019092919050505061056f565b005b3480156101b757600080fd5b50610252600480360381019080803590602001908201803590602001908080601f0160208091040260200160405190810160405280939291908181526020018383808284378201915050505050509192919290803573ffffffffffffffffffffffffffffffffffffffff169060200190929190803573ffffffffffffffffffffffffffffffffffffffff16906020019092919050505061073a565b005b34801561026057600080fd5b50610295600480360381019080803573ffffffffffffffffffffffffffffffffffffffff169060200190929190505050610848565b005b3480156102a357600080fd5b506102e260048036038101908080359060200190929190803573ffffffffffffffffffffffffffffffffffffffff169060200190929190505050610868565b005b3480156102f057600080fd5b506102f9610955565b005b34801561030757600080fd5b5061033c600480360381019080803573ffffffffffffffffffffffffffffffffffffffff169060200190929190505050610960565b604051808215151515815260200191505060405180910390f35b34801561036257600080fd5b50610397600480360381019080803573ffffffffffffffffffffffffffffffffffffffff16906020019092919050505061097d565b604051808215151515815260200191505060405180910390f35b3480156103bd57600080fd5b506103c661099a565b005b600260009054906101000a900473ffffffffffffffffffffffffffffffffffffffff1673ffffffffffffffffffffffffffffffffffffffff163373ffffffffffffffffffffffffffffffffffffffff16141561045957600260009054906101000a900473ffffffffffffffffffffffffffffffffffffffff1673ffffffffffffffffffffffffffffffffffffffff16ff5b565b6104643361097d565b151561046f57600080fd5b610478816109a5565b50565b823373ffffffffffffffffffffffffffffffffffffffff166005600083815260200190815260200160002060020160009054906101000a900473ffffffffffffffffffffffffffffffffffffffff1673ffffffffffffffffffffffffffffffffffffffff161415156104ec57600080fd5b82600560008681526020019081526020016000206001019080519060200190610516929190610efe565b508160056000868152602001908152602001600020600501819055507f208509800c5cb9707f116ef96a1d456499ab9fa3c8edc1cdf381fe5216d5b173846040518082815260200191505060405180910390a150505050565b600560008281526020019081526020016000206005015480341015151561059557600080fd5b81600160028111156105a357fe5b6005600083815260200190815260200160002060040160149054906101000a900460ff1660028111156105d257fe5b1415156105de57600080fd5b6005600084815260200190815260200160002060030160009054906101000a900473ffffffffffffffffffffffffffffffffffffffff1673ffffffffffffffffffffffffffffffffffffffff166108fc60056000868152602001908152602001600020600501549081150290604051600060405180830381858888f19350505050158015610670573d6000803e3d6000fd5b50336005600085815260200190815260200160002060020160006101000a81548173ffffffffffffffffffffffffffffffffffffffff021916908373ffffffffffffffffffffffffffffffffffffffff16021790555060026005600085815260200190815260200160002060040160146101000a81548160ff021916908360028111156106f957fe5b02179055507fdfd517ed69f8a0a57d49fe494e4864fac3cfe3585c14c0bfddf39f72463ec3fd836040518082815260200191505060405180910390a1505050565b610742610f7e565b6107836040805190810160405280601581526020017f636f6e736f6c65206c6f672025732025732025732000000000000000000000008152508585856109ff565b60e060405190810160405280600181526020018581526020018473ffffffffffffffffffffffffffffffffffffffff1681526020018473ffffffffffffffffffffffffffffffffffffffff1681526020018373ffffffffffffffffffffffffffffffffffffffff168152602001600060028111156107fd57fe5b8152602001600081525090507fbe9b076dc5b65990cca9dd9d7366682482e7817a6f6bc7f4faf4dc32af497f326003546040518082815260200191505060405180910390a150505050565b61085133610960565b151561085c57600080fd5b61086581610bd5565b50565b813373ffffffffffffffffffffffffffffffffffffffff166005600083815260200190815260200160002060020160009054906101000a900473ffffffffffffffffffffffffffffffffffffffff1673ffffffffffffffffffffffffffffffffffffffff161415156108d957600080fd5b600460008481526020019081526020016000208290806001815401808255809150509060018203906000526020600020016000909192909190916101000a81548173ffffffffffffffffffffffffffffffffffffffff021916908373ffffffffffffffffffffffffffffffffffffffff16021790555050505050565b61095e33610c2f565b565b6000610976826001610c8990919063ffffffff16565b9050919050565b6000610993826000610c8990919063ffffffff16565b9050919050565b6109a333610d1d565b565b6109b9816000610d7790919063ffffffff16565b8073ffffffffffffffffffffffffffffffffffffffff167f69908b2e63170aa89ef89719bbe3b4c92cccc38653968ab25f4464eff7c28ac860405160405180910390a250565b610bcf848484846040516024018080602001806020018573ffffffffffffffffffffffffffffffffffffffff1673ffffffffffffffffffffffffffffffffffffffff1681526020018473ffffffffffffffffffffffffffffffffffffffff1673ffffffffffffffffffffffffffffffffffffffff168152602001838103835287818151815260200191508051906020019080838360005b83811015610ab1578082015181840152602081019050610a96565b50505050905090810190601f168015610ade5780820380516001836020036101000a031916815260200191505b50838103825286818151815260200191508051906020019080838360005b83811015610b17578082015181840152602081019050610afc565b50505050905090810190601f168015610b445780820380516001836020036101000a031916815260200191505b5096505050505050506040516020818303038152906040527f439c7bef000000000000000000000000000000000000000000000000000000007bffffffffffffffffffffffffffffffffffffffffffffffffffffffff19166020820180517bffffffffffffffffffffffffffffffffffffffffffffffffffffffff8381831617835250505050610e27565b50505050565b610be9816001610d7790919063ffffffff16565b8073ffffffffffffffffffffffffffffffffffffffff167fa58cff07db0adda3ab7a40bd2f18ab57210bf38391a52ffd2e8eee6b8bdec71a60405160405180910390a250565b610c43816001610e4f90919063ffffffff16565b8073ffffffffffffffffffffffffffffffffffffffff167f053a4badf166f01c4b02f6bcb71d2d67734470d0866282e291e73001aa25c76960405160405180910390a250565b60008073ffffffffffffffffffffffffffffffffffffffff168273ffffffffffffffffffffffffffffffffffffffff1614151515610cc657600080fd5b8260000160008373ffffffffffffffffffffffffffffffffffffffff1673ffffffffffffffffffffffffffffffffffffffff16815260200190815260200160002060009054906101000a900460ff16905092915050565b610d31816000610e4f90919063ffffffff16565b8073ffffffffffffffffffffffffffffffffffffffff167f493d7cf6a7c880406a55654d6727464ea088bd01d40498e1987a327e68961ab860405160405180910390a250565b600073ffffffffffffffffffffffffffffffffffffffff168173ffffffffffffffffffffffffffffffffffffffff1614151515610db357600080fd5b610dbd8282610c89565b151515610dc957600080fd5b60018260000160008373ffffffffffffffffffffffffffffffffffffffff1673ffffffffffffffffffffffffffffffffffffffff16815260200190815260200160002060006101000a81548160ff0219169083151502179055505050565b600080825191506a636f6e736f6c652e6c6f679050602083016000808483855afa5050505050565b600073ffffffffffffffffffffffffffffffffffffffff168173ffffffffffffffffffffffffffffffffffffffff1614151515610e8b57600080fd5b610e958282610c89565b1515610ea057600080fd5b60008260000160008373ffffffffffffffffffffffffffffffffffffffff1673ffffffffffffffffffffffffffffffffffffffff16815260200190815260200160002060006101000a81548160ff0219169083151502179055505050565b828054600181600116156101000203166002900490600052602060002090601f016020900481019282601f10610f3f57805160ff1916838001178555610f6d565b82800160010185558215610f6d579182015b82811115610f6c578251825591602001919060010190610f51565b5b509050610f7a9190611009565b5090565b60e0604051908101604052806000815260200160608152602001600073ffffffffffffffffffffffffffffffffffffffff168152602001600073ffffffffffffffffffffffffffffffffffffffff168152602001600073ffffffffffffffffffffffffffffffffffffffff16815260200160006002811115610ffc57fe5b8152602001600081525090565b61102b91905b8082111561102757600081600090555060010161100f565b5090565b905600a165627a7a72305820d6258cbbac6a05639c938c35c03659d93de2a8348d6529260588cde8e1ce08970029",
  "source": "pragma solidity ^0.4.24;\n\nimport \"@nomiclabs/buidler/console.sol\";\nimport \"../medicalAccesscontrol/PatientRole.sol\";\nimport \"../medicalAccesscontrol/DoctorRole.sol\";\nimport \"../medicalCore/Ownable.sol\";\n\n// Define a contract 'Supplychain'\ncontract SupplyChain is DoctorRole, PatientRole {\n    // Define 'owner'\n    address owner;\n\n    // Define a variable called 'sku' for Stock Keeping Unit (SKU)\n    uint256 sku;\n\n    // maintain the list of doctors who can access to one medical record (SKU)\n    mapping(uint256 => address[]) readers;\n\n    // Define enum 'State' with the following values:\n    enum State {\n        Initialized, // 0\n        Updating, // 1\n        Complete // 2\n    }\n\n    State constant defaultState = State.Initialized;\n\n    // Define a struct 'Item' with the following fields:\n    struct MedicalRecord {\n        uint256 sku;\n        string file;\n        address owner; // can be doctor or patient depends on the status of the item\n        address fromDoctor;\n        address forPatient;\n        State status;\n        uint256 price;\n    }\n\n    mapping(uint256 => MedicalRecord) items;\n\n    event Initialized(uint256 sku);\n    event Updated(uint256 sku);\n    event Completed(uint256 sku);\n\n    // Define a modifer that checks to see if msg.sender == owner of the contract\n    modifier onlyOwner() {\n        require(msg.sender == owner);\n        _;\n    }\n\n    modifier onlyOwnerSku(uint256 _sku) {\n        require(items[_sku].owner == msg.sender);\n        _;\n    }\n\n    // Define a modifer that verifies the Caller\n    modifier verifyCaller(address _address) {\n        require(msg.sender == _address);\n        _;\n    }\n\n    // Define a modifier that checks if the paid amount is sufficient to cover the price\n    modifier paidEnough(uint256 _price) {\n        require(msg.value >= _price);\n        _;\n    }\n\n    // Define a modifier that checks if an item.state of a upc is Harvested\n    modifier initialized(uint256 _sku) {\n        require(items[_sku].status == State.Initialized);\n        _;\n    }\n\n    // Define a modifier that checks if an item.state of a upc is Processed\n    modifier updating(uint256 _sku) {\n        require(items[_sku].status == State.Updating);\n        _;\n    }\n\n    constructor() public payable {\n        owner = msg.sender;\n        sku = 1;\n    }\n\n    function kill() public {\n        if (msg.sender == owner) {\n            selfdestruct(owner);\n        }\n    }\n\n    function createMDR(\n        string _file,\n        address _doctor,\n        address _forPatient\n    ) public {\n        console.log(\"console log %s %s %s \", _file, _doctor, _forPatient);\n        MedicalRecord memory mdr = MedicalRecord({\n            sku: 1,\n            file: _file,\n            owner: _doctor,\n            fromDoctor: _doctor,\n            forPatient: _forPatient,\n            status: State.Initialized,\n            price: 0\n        });\n\n        // items[sku] = mdr;\n        // sku = sku + 1;\n        emit Initialized(sku);\n    }\n\n    function updateMDR(\n        uint256 _sku,\n        string _file,\n        uint256 _price\n    ) public onlyOwnerSku(_sku) {\n        items[_sku].file = _file;\n        items[_sku].price = _price;\n\n        emit Updated(_sku);\n    }\n\n    function payMDR(uint256 _sku)\n        public\n        payable\n        paidEnough(items[_sku].price)\n        updating(_sku)\n    {\n        // Transfer money to doctor\n        items[_sku].fromDoctor.transfer(items[_sku].price);\n        items[_sku].owner = msg.sender;\n        items[_sku].status = State.Complete;\n\n        emit Completed(_sku);\n    }\n\n    function shareMDR(uint256 _sku, address forDoctor)\n        public\n        onlyOwnerSku(_sku)\n    {\n        readers[_sku].push(forDoctor);\n    }\n}\n",
  "sourcePath": "/Users/vinhnguyen/Projects/learn/blockchain/Udacity/blockchain-nanodegree/nd1309-supply-chain/contracts/medicalBase/SupplyChain.sol",
  "compiler": {
    "name": "solc",
    "version": "0.4.26+commit.4563c3fc.Emscripten.clang"
  },
  "schemaVersion": "2.0.3",
  "updatedAt": "2021-11-14T08:13:19.905Z"
}